:040000000200513277
:01000B0032C2
:0100130032BA
:01001B0032B2
:0100230032AA
:01002B0032A2
:01003300329A
:01003B003292
:01004300328A
:03004B0002063773
:1000AA00E4F53CF53DF53EF53FF540F54102004EDD
:03004E000205C0E8
:2000BA0075B1677E007F01EE24FFFCEF34FFFD8C068D07EC4D70F0E5B130E7FB75B2882237
:2000DA00759850758920758DDCD28E438E10438780D29943A4012275FFDE75FFAD1200BA6E
:2000FA001200DA43E10443E34022AF8210990280FB8F992210980280FBAF998F82C0071252
:20011A000104D0078F82222098057582FF800BC29885998212010485998222C00F85810FC1
:20013A00E50F24FBF886820886830886F0120DBCE5828583F045F070028062E50F24FBFF2E
:20015A008F0BE50F24FBF8860808860908860A90000175F00012072A90000175F000120DD5
:20017A00BCAE827F00C3EF9E501FEF2401F582E43400F583E0FDBD0A0DEF2401F582E434CC
:20019A0000F583740DF00F80DC752D01752E00752F00752C008E307582C6120446D00F228E
:2001BA0075270074C0252740177532277533007534407531007535017582C61204C080E30C
:2001DA0075280C752D28752E00752F40752C007530017582C61204462275322A753300759B
:2001FA0034407531017535027582C61204C074FFB52A05758200805F7F008F068EF005F0D7
:20021A007C017D008006EC2CFCED33FDD5F0F7AA2A7B00EA5204EB5205EC4D600774312F12
:20023A00F58280330E8E07BE080040D0E52B30E0057582398021E52B30E10575822A80172D
:20025A00E52B30E205758230800DE52B30E30575822380037582FF22AF82E4FDFEEF701D40
:20027A00C006C00574F4C0E0740DC0E07480C0E0120135158115811581D005D006C006C0E1
:20029A00057408C0E0E4C0E07408C0E0E4C0E07408C0E0E4C0E07408C0E0E4C0E07408C083
:2002BA00E0E4C0E0740AC0E0740EC0E07480C0E0120135E58124F3F58190A12075F007E410
:2002DA001203E1D005D0067F00C007C006C0051201F3AC82D005D006D0078C03BCFF028010
:2002FA0003BB2A17902710E4F5F0C007C006C0051203E1D005D006D00780CEBB232AC0066F
:20031A00C0051201F3AC82D005D006BC2313902710E4F5F0C006C0051203E1D005D00680F1
:20033A00DD8D828E830203E08B027C00C007C006C005C004C003C002C002C004741AC0E069
:20035A00740EC0E07480C0E0120135E58124FBF581D002D003D004D005D0068D118E129098
:20037A00000AC004C003C00212069DA882A983D002D003D004D007EA28F8EC39F9E824D0B1
:20039A00FDE934FFFEC007C006C005C0031201F3AC82D003D005D006D007ECB5031B902718
:2003BA0010E4F5F0C007C006C005C0031203E1D003D005D006D00780CC0FBF050050030276
:2003DA0002E38D828E8322AC82AD83AEF0FF780079007A007B00C3E89CE99DEA9EEB9F50CC
:2003FA000F08B8000909B900050ABA00E90B80E62220C7FDD2C530C3FDC2C5C2C322858264
:20041A00C210C30280FB228582C2D2C410C30280FB2230C3FD85C282C2C32230C3FDAFC2FC
:20043A00C2C3D2C410C30280FB8F8222AF82C2AFC00712040BD00774FE5FF58212041885A8
:20045A002C821204187F00AD307E001DBDFF011E8F037C00C3EB9DEC64808EF063F08095C5
:20047A00F0501FEF252DFCE4352EFDAE2F8C828D838EF0120DD4F582C007120418D0070FC4
:20049A0080C5AE307F001EBEFF011FEE252DFEEF352EFFAD2F8E828F838DF0120DD4F58231
:2004BA00120421D2AF22AF82C2AFC00712040BD00774FE5FF582C00712041885318212045C
:2004DA002112040BD00774014FF5821204187F00AD357E001DBDFF011E8F037C00C3EB9D50
:2004FA00EC64808EF063F08095F0502ED2C2EF2532FCE43533FDAE34C007C006C005C004A7
:20051A0012042CAB82D004D005D006D0078C828D838EF0EB1206820F80B6C2C2AE357F00B0
:20053A001EBEFF011FEE2532FEEF3533FFAD34C007C006C005120435AC82D005D006D007DF
:20055A008E828F838DF0EC120682D2AF22752223752300752310752400752D22752E00754A
:20057A002F40752C2075300175823012044622752204752D22752E00752F40752C23753097
:20059A000175823A12044675226B752300752400752D22752E00752F40752C207530017559
:2005BA00823A120446221200F175822012010412061412061E12062212067C741DC0E074E1
:2005DA000EC0E07480C0E01207D9158115811581E53E20E0FB120656858240858341C040EF
:2005FA00C041743CC0E0740EC0E07480C0E01207D9E58124FBF58180D72275A50F75A4C072
:20061A0043803F2275E12722D2AF43E60875D98175DAC275E90075F97043D84022C0E0C052
:20063A00D010DF02800E75E90075F970053EE4B53E02053F53D840D0D0D0E032753242756A
:20065A0033007534407531027535027582C01204C0AF427E00AC437D00EC4EF582ED4FF5C6
:08067A00832275CF93D2C62242
:200DF4000A54797065206469676974733B20656E6420772F2300202020202025632563253F
:200E1400632563256300256300456D62656464656420436F6E74726F6C20436F6D70617335
:170E34007320546573740A000D0A42656172696E67203D2025750084
:06008000E478FFF6D8FD54
:20005E007900E94400601B7A00900E56785175AF00E493F2A308B8000205AFD9F4DAF27576
:02007E00AFFFD2
:1B06820020F71130F6138883A88220F509F6A8837583002280FEF280F5F02277
:1D069D00E5828511F0A4C582C0F08512F0A4D0F025F0C5838511F0A42583F5832204
:2006BA00C00F85810FC082058105810581E50F24FBF8A90F0909E6F70809E6F70809E6F7DA
:2006DA00A80F080886820886830886F0120DD4FAA3120DD4FBA3120DD4FF74012AFCE43BD5
:2006FA00FD8F06A80F080886820886830886F0EC120682A3ED120682A3EE1206828A828B7E
:20071A00838FF0A80F08E6120682850F81D00F2285820C85830D85F00E75500C75510075B1
:20073A005240850853850954850A55850B569006BA1208B0AE82AF83AB0CAC0DAD0E8B82CD
:20075A008C838DF0E41206828E828F8322C00F85810FE50F24F8FF8F56E50F24FBFF8F5068
:20077A00755100755240E50F24F8F886530886540886559006BA1208B0AE82AF83E50F2458
:1B079A00FBF886030886040886058B828C838DF0E41206828E828F83D00F2269
:200086007800E84400600A790175AF00E4F309D8FC7850E84400600C7901900001E4F0A318
:0400A600D8FCD9FAAF
:2007B500C00F85810F120104D00F2285825385835485F055E4F550F551F552851056900770
:2007D500B50208B0C00F85810FE50F24FBFF8F56E4F550F551F552E50F24FBF88653088692
:0D07F500540886559007B51208B0D00F22A9
:20080200AF82C046C047C04812080F8007C044C0458F8222158115811581054EE4B54E02A6
:20082200054F22AF8274302FFF24C6500A74072FFF3000034307208F82020802E582FFC46C
:20084200540FF582C007120825D007740F5FF582020825858211854912854A13854B148514
:200862004C15AA4D751620EA2AFAE515235401FF8A064EFAE5122512F512E51333F513E5CF
:200882001433F514E51533F515C3EA95114008EAC39511FA431201E51614FF8F1670C88521
:2008A200124985134A85144B85154C8A4D22858244858345855046855147855248E4F54E20
:2008C200F54FAD53AE54AF558D828E838FF0120DD4FC74012DF553E43EF5548F55ECFF70AA
:2008E20003020DB5BF25028003020DADC201C202C203C204C205C206C207C2087557007595
:2009020058007559FFAA53AB54AE558A828B838EF0120DD4FFA3AA82AB838A538B548E558B
:20092200BF25078F821208028098BF3000402DEF24C6402874FFB55912E55875F00AA42FD6
:20094200FC24D0F55870C4D20280C0E55975F00AA4FC8F05ED2C24D0F55980AFBF2E0A743A
:20096200FFB559A775590080A2BF6100400CEF248540075307DFD2008002C200BF200280D6
:200982006DBF2B028063BF2D028059BF42028063BF43028068BF4403020B53BF4603020B05
:2009A20069BF480302090DBF4903020B53BF4A0302090DBF4C028040BF4F03020B5ABF50C7
:2009C20003020AE8BF5302805ABF540302090DBF5503020B5FBF5803020B64BF5A030209CD
:2009E2000D020B6DD20102090DD20302090DD20402090DD20602090DD20702090D30060A87
:200A0200E55614F9895687078011E55624FEFE8E568E018705098706198D078F82120802C4
:200A2200020B76E55624FDFE8E568E01870409870509870619198C498D4A8E4B8C828D83D9
:200A42008EF0120DBCAD82AE8374FFB559028D59200126C3ED95585020E558C39DF558AE86
:200A6200588E041EEC6010758220C006C005120802D005D00680EA8E58AE59854982854A31
:200A820083854BF0120DD4FCFF602F8E041EC374808CF063F08095F050208F82C006C0054D
:200AA200120802D005D006AA49AB4AAC4B0ABA00010B8A498B4A8C4B80C1200103020B7657
:200AC200C3ED95584003020B76E558C39DF558AE588E041EEC7003020B74758220C0061242
:200AE2000802D00680EBE55624FDFC8C568C01870209870309870419198A498B4A8C4BACD5
:200B02004BBC800040047F438014BC600040047F50800BBC400040047F4980027F588F8286
:200B2200C00712080275823A120802758230120802758278120802D007BF4902800BBF503A
:200B4200028006854A8212083E85498212083E8023D20575570A801C755708801775570A8D
:200B62008012755710800DD20880098F8212080280028E5830085CE55624FCFE8E568E0120
:200B820087020987030987040987061919198A498B4A8C4B8E4C75494B754A0E754B8085CE
:200BA200495B854A5C854B5D7401255BFAE4355CFCAE5D8A498C4A8E4B855B82855C8385FF
:200BC2005DF0120DD4FEFF70030208C48F8212080280CCE55770030208C4755A1C30062D51
:200BE200E55614F9895687048C027B007C007E008A498B4A8C4B8E4C200566AA497B007C70
:200C0200007E008A498B4A8C4B8E4C8054300721E55624FCFE8E568E018702098703098757
:200C2200040987061919198A498B4A8C4B8E4C8030E55624FEFE8E568E01870409870619BC
:200C4200EE3395E0FBFA8C498E4A8B4B8A4C200510AA49AB4A7C007E008A498B4A8C4B8E8A
:200C62004C300522E54C30E71BC3E49549FAE4954AFBE4954BFCE4954CFE8A498B4A8C4B2D
:200C82008E4C8002C205D209A95A7E00754D00855782C006C001120855D001D00620090BE2
:200CA200E54DC4FCE7FB4CF7198002A74D0EB209E549454A454B454C70D2895A8E05E558F0
:200CC2007003755801200224200121ED04FEAC58C3EE9C5015758220C006C005C004120824
:200CE20002D004D005D0061C80E68C5830050E75822DC005120802D00515588023ED602071
:200D020030030E75822BC005120802D0051558800F30040C758220C005120802D005155842
:200D2200200126AE588E041EC3ED9C502F3002067B307C0080047B207C008B82C006C00557
:200D4200120802D005D00680DCC3ED95585008E558C39DF558800775580080028E58A95AD0
:200D62008D068E051EED6026B20920090A09E7C4540FFD8D4D80078705740F5DF54D854DD7
:200D820082C006C001120825D001D00680D42001030208C4AE588E051EED70030208C475C2
:1A0DA2008220C006120802D00680EB8F821208020208C4854E82854F8322A9
:0B0E4B003C4E4F20464C4F41543E00EF
:180DBC00AA82AB83120DD46003A380F8C3E5829AF582E5839BF583227C
:0D00510075815D120DF0E582600302004E26
:1C0DD40020F71430F6148883A88220F507E6A88375830022E280F7E49322E0222E
:040DF00075820022E6
:00000001FF
