:0400000002001132B7
:03000B00020BEEF7
:20006A00E4F522F523753BFC753C01753DC9753E01753F9D754001754174754201754353E2
:03008A00754401B9
:0300970002000E56
:03000E00020115D7
:20009A0075B1677E007F01EE24FFFCEF34FFFD8C068D07EC4D70F0E5B130E7FB75B2882257
:2000BA00759850758920758DDCD28E438E10438780D29943A4012275FFDE75FFAD12009AAE
:2000DA001200BA43E10443E34022AF8210990280FB8F992210980280FBAF998F82C0071292
:2000FA0000E4D0078F82222098057582FF800BC2988599821200E4859982221200D1120112
:20011A00E01202011201F0120207748AC0E07418C0E07480C0E01210BA158115811581D2E4
:20013A008C120D41E58260F920A01A30A11774F7C0E07418C0E07480C0E01210BA158115E5
:20015A00811581804F30A01A20A117742DC0E07419C0E07480C0E01210BA1581158115813D
:20017A00803220A01A20A1177463C0E07419C0E07480C0E01210BA15811581158180157422
:20019A0098C0E07419C0E07480C0E01210BA158115811581120D41E582608D20A00930A160
:2001BA00061202E802012430A00920A10612074402012430A00302012430A10302012412D1
:2001DA0009DD0201242243A7FC53A7FE43B00153A6FC43A00322438E085389F0438901C2D3
:2001FA008CE4F58AF58C2243A882D2AF2253BDFE53A5FE43900175D10343AB0153ABFD75C3
:20021A00AA80120227AF828F2F7530002275AC0053AADF43AA10E5AA30E5FB859C8222AE9D
:20023A0082AF837401B50E1B8E33EFA2E7C53333C53333A2E7C53333C53333C5335403F5EB
:20025A003480187403B50E138E33EFC313C53313C533C313C53313C533F5348533828534ED
:20027A008322AE82AF83E4F522F523AC4B7D00C3EE9CEF9D5013C3E5229451E523940150FE
:20029A0026758272120D1C80EDAC4B7D00C3EC9EED9F5013C3E5229451E523940150087544
:2002BA008267120D1C80ED22E4F522F523C374519522740195234015E52220E00875827225
:2002DA00120D1C80E8758267120D1C80E02274CCC0E07419C0E07480C0E01210BA1581151E
:2002FA008115817E007F00758201C007C006120C0E758272120D1CD006D00720B0FD7D0084
:20031A008D040DEC7003020727C007C006C0057447C0E0741CC0E07480C0E01210BA1581B3
:20033A001581158175826F120D1C120C01AC82D005D006D007D28CBC0103EC8001E4FBE4B9
:20035A00BC020104FAE4BC030104F9E4BC040104F8C374A99522E49523405FEC7028758237
:20037A0001C007C006C005C004C003C002C001C000120C0ED000D001D002D003D004D0052B
:20039A00D006D00780CBEB600AC2B6D2B5D2B7D2B280BEEA600AC2B6C2B5D2B7D2B280B12B
:2003BA00E9600AC2B6C2B5C2B7D2B280A4E860A1C2B6C2B5C2B7C2B28097C007C006C00592
:2003DA00C004120D10D004D005D006D007D28C30B074C007C006C005C004120227AB82D0BA
:2003FA0004D005D006D0078B2F753000C37433952FE49530400AD2B6D2B5D2B7D2B280CF72
:20041A00C37466952FE49530400AC2B6D2B5D2B7D2B280BBC37499952FE49530400AC2B628
:20043A00C2B5D2B7D2B280A7C374CC952FE49530400AC2B6C2B5C2B7D2B28093C2B6C2B54F
:20045A00C2B7C2B28089AA22AB23C007C006C005C004C003C002120D10D002D003D004D0DF
:20047A0005D006D007D28CC374079522E49523400AD2B6D2B5D2B7D2B280ECC007C006C0A2
:20049A0005C004C003C002120D10D002D003D004D005D006D007D28CC374079522E49523DB
:2004BA00400AC2B6C2B5C2B7C2B280ECC007C006C005C004C003C002120D10D002D003D051
:2004DA0004D005D006D007D28CC374079522E49523400AD2B6D2B5D2B7D2B280ECC007C034
:2004FA0006C005C004C003C002120D10D002D003D004D005D006D007EC702FC3E52F94337B
:20051A00E53094004024758267C007C006C005C004C003C002120D1CD002D003D004D00532
:20053A00D006D007753101753200BC015FC37433952FE495304026758272C007C006C00592
:20055A00C004C003C002120D1CD002D003D004D005D006D007753101753200802FC3E52F2E
:20057A009466E53094004024758267C007C006C005C004C003C002120D1CD002D003D004AD
:20059A00D005D006D007753101753200BC025FC37466952FE495304026758272C007C006EE
:2005BA00C005C004C003C002120D1CD002D003D004D005D006D007753101753200802FC31D
:2005DA00E52F9499E53094004024758267C007C006C005C004C003C002120D1CD002D003DA
:2005FA00D004D005D006D007753101753200BC035FC37499952FE495304026758272C0074C
:20061A00C006C005C004C003C002120D1CD002D003D004D005D006D00775310175320080E8
:20063A002FC3E52F94CCE53094004024758267C007C006C005C004C003C002120D1CD00227
:20065A00D003D004D005D006D007753101753200BC042AC374CC952FE495304020758272E6
:20067A00C007C006C005C003C002120D1CD002D003D005D006D007753101753200750EA9AD
:20069A00750F008A828B83C007C006C005120DAEAB82AC83D005D006D0077401B531061430
:2006BA00B5320280028007740A2BFBE43CFCEB2EFEEC3FFFC007C006C005C003C004744D93
:2006DA00C0E0741CC0E07480C0E01210BAE58124FBF581D005D006D007C007C006C005C031
:2006FA0006C007745DC0E0741CC0E07480C0E01210BAE58124FBF581D005D006D007D28C27
:20071A00C374A99522E4952350F602031AC006C007746DC0E0741CC0E07480C0E01210BA79
:20073A00E58124FBF5811202C222747DC0E0741CC0E07480C0E01210BA158115811581E4D5
:20075A00F535F536758201120C0EE4F537F538F545F546F547F548E4F537F538120D1075FA
:20077A008272120D1CD28CC3E5229452E5239401501C752464752500152474FFB5240215E6
:20079A0025E524452570F1752464F52580D975826F120D1C120227AF828F2F753000852FB2
:2007BA0082754D00754E04120C2DAF828F45754600854582120CE7120D10D28CE547254793
:2007DA00FEE54833EE243BF9870609870719C3E5229EE5239F502C120D41AF82BF01080535
:2007FA0037E4B537020538752464752500152474FFB524021525E524452570F1752464F57B
:20081A002580B9E545B53710E546B5380B740A2535F535E43536F536120D10D28C75820116
:20083A00120C0EC3E5229407E5239400501C752464752500152474FFB524021525E524455F
:20085A002570F1752464F52580D9758200120C0E120D10D28CC3E5229407E5239400501C6B
:20087A00752464752500152474FFB524021525E524452570F1752464F52580D975820112B8
:20089A000C0E85378285454F120D89E545B5371CE546B538177417C0E0741DC0E07480C0B4
:2008BA00E01210BA1581158115818015742BC0E0741DC0E07480C0E01210BA1581158115EA
:2008DA0081C035C036743EC0E0741DC0E07480C0E01210BAE58124FBF581120D10D28CC354
:2008FA00E5229452E5239401501C752464752500152474FFB524021525E524452570F17547
:20091A002464F52580D975826F120D1C120D10D28CC3E52294A9E5239400501C7524647513
:20093A002500152474FFB524021525E524452570F1752464F52580D90547E4B547020548F8
:20095A00C3E5479405E548648094805003020771C035C0367450C0E0741DC0E07480C0E0EF
:20097A001210BAE58124FBF581120D10D28CE4F539F53AC3E5229452E5239401503E7582E6
:20099A0072120D1C85223985233A74072539FEE4353AFFC3E5229EE5239F40EE75826712F8
:2009BA000D1C85223985233A74072539FEE4353AFFC3E5229EE5239F50B980EC75826F120D
:2009DA000D1C227462C0E0741DC0E07480C0E01210BA158115811581120D41E58260F97445
:2009FA0045C0E07420C0E07480C0E01210BA158115811581E4F535F536D2B6D2B5D2B7D2EF
:200A1A00B2758272120D1CE4F526F527120C01AF828F2C752D00852C82120CE775826F12EE
:200A3A000D1CE4F522F523D28CC3E5229451E52394015008120227120BA580ED120227E5D4
:200A5A00820303543FFF8F2F753000C3E52294B5E5239401500AD2B6D2B5D2B7D2B280EB6E
:200A7A00C3E5229419E5239402500AC2B6C2B5C2B7C2B280EBC3E522947DE5239402505D80
:200A9A00D2B6D2B5D2B7D2B2E4F522F523852F82E530C4C582C4540F6582C582540FC582B8
:200ABA006582C582F583852C4B12027CAE2CE52DC454F0CEC4CE6ECE54F0CE6EFFEEC39595
:200ADA002FF582EF9530F583120F26AE82AF838E31EFC53125E0C53133F5328098740AC32F
:200AFA009531FEE49532FF4E600E740AC39531F528E49532F5298005E4F528F529E52825EF
:200B1A002AF52AE529352BF52BC02AC02BC028C029744FC0E07420C0E07480C0E01210BA37
:200B3A00E58124F9F581E4F522F523C3E52294A9E5239400501C752464752500152474FF3D
:200B5A00B524021525E524452570F1752464F52580D90526E4B526020527C374059526749F
:200B7A00808527F063F08095F04003020A26C02AC02B747CC0E07420C0E07480C0E0121023
:200B9A00BAE58124FBF5811202C222E5820303543FFF7E00C3EE9F5011758223C007C006B9
:200BBA001200E4D006D0070E80EA743FC39FFF7E00C3EE9F5011758220C007C0061200E423
:200BDA00D006D0070E80EA75827C1200E475820D1200E422C0E0C0D0C28D0522E4B52202EE
:200BFA000523D0D0D0E032120DD7750E05750F001217C122E58224FFE433F54C24FF92B6D6
:200C1A00E54C24FF92B5E54C24FF92B7E54C24FF92B222E54EC3954DFFC0071217AEAB8226
:200C3A00AC83ADF0FEE4C0E0C0E0747FC0E07443C0E08B828C838DF0EE1216CFAB82AC83E8
:200C5A00ADF0FEE58124FCF581D0078F82C006C005C004C0031217AEA882A983AAF0FFD053
:200C7A0003D004D005D006C003C004C005C006888289838AF0EF120E22AC82AD83AEF0FF0A
:200C9A00E58124FCF581854D82C007C006C005C0041217AEA882A983AAF0FBD004D005D099
:200CBA0006D007C000C001C002C0038C828D838EF0EF120FEEAC82AD83AEF0FFE58124FC1C
:200CDA00F5818C828D838EF0EF1217B922AF82758201C007120C0ED007BF01004002C2B688
:200CFA00BF02004002C2B5BF03004002C2B7BF04004002C2B222C28CE4F58AF58CF522F50A
:200D1A002322AF82BF47028013BF52028008BF67028009BF720CC2B3D2B4800AD2B3C2B49F
:200D3A008004C2B3C2B4227F00D28CE4F539F53A20B03985223985233A74072539FDE43530
:200D5A003AFEC3E5229DE5239E501C752464752500152474FFB524021525E524452570F19C
:200D7A00752464F52580D230B0FD7F018F8222AF82C3EF954F5008758272120D1C8014C346
:140D9A00E54F9F5008758267120D1C800675826F120D1C2238
:20188A000D0A0A53656C6563742061206D6F6465207573696E672074686520736C6964659F
:2018AA002073776974636865732E0D0A5072657373207468652070757368627574746F6E65
:2018CA0020746F2073656C6563742061206D6F64652C207075736820697420616761696EEC
:2018EA0020746F20636F6E6669726D2E000D0A4D6F646520313A20536C69646520737769F4
:20190A007463682031206973204F4E2C20736C696465207377697463682032206973204FA8
:20192A004646000D0A4D6F646520323A20536C696465207377697463682031206973204F6A
:20194A0046462C20736C696465207377697463682032206973204F4E000D0A4D6F6465201B
:20196A00333A20536C696465207377697463682031206973204F4E2C20736C696465207333
:20198A0077697463682032206973204F4E000D0A4F46463A20536C6964652073776974638C
:2019AA00682031206973204F46462C20736C696465207377697463682032206973204F465B
:2019CA0046000A0D546865206669727374206D6F64652067656E6572617465732061207281
:2019EA00616E646F6D206E756D6265722066726F6D203020746F20342E0A0D5468652067BD
:201A0A00656E657261746564206E756D626572206C6967687473207570206E6F6E652074B7
:201A2A006F20616C6C2034204C45447320696E2061206C696E652E20546865204C45447301
:201A4A002073746179206F6E20302E3520732C207468656E207475726E206F66660A0D61A1
:201A6A006E6420612074696D657220697320737461727465642E2054686520706C6179650B
:201A8A0072207468656E207475726E73206120706F74656E74696F6D657465722077686F01
:201AAA00736520766F6C746167652076616C7565206973207573656420746F207475726E3C
:201ACA00206F6E207468650A0D4C45447320696E2073657175656E636520756E74696C2063
:201AEA007468652073616D65207061747465726E20617070656172732E2054686520707537
:201B0A007368627574746F6E206973207468656E207072657373656420746F2073746F707A
:201B2A00207468652074696D657220616E640A0D7265636F726420746865204C454420702A
:201B4A0061747465726E2C207768696368206973207468656E20636F6D70617265642074C4
:201B6A006F20746861742067656E657261746564206279207468652072616E646F6D206EC1
:201B8A00756D6265722E2053636F72696E672069730A0D6261736564206F6E20636F727218
:201BAA006563746E65737320616E64207370656564206F6620656E7472792E2054686520CC
:201BCA0077686F6C652070726F6365737320697320726570656174656420352074696D6533
:201BEA007320616E64207468652066696E616C2073636F72652069730A0D646973706C61BE
:201C0A00796564206F6E20746865207465726D696E616C2E20546865206C6F776572207452
:201C2A0068652073636F7265207468652062657474657220796F75206469642E0053746166
:201C4A00727400526F756E642053636F72653A20256400546F74616C2053636F72653A2013
:201C6A0025640046696E616C2053636F72653A202564000D0A0A506C617965722031207772
:201C8A00696C6C20686176652031207365636F6E6420746F2061646A757374207468652019
:201CAA00706F74656E74696F6E6D6574657220746F206C69676874207570204C4544732E47
:201CCA000D0A506C617965722032206D757374207468656E20707573682074686520627534
:201CEA0074746F6E20666F722065616368204C4544207468617420776173206C69742077CC
:201D0A00697468696E20312E35730D0A000D0A313020706F696E7473206761696E65642181
:201D2A00000D0A3020706F696E7473206761696E656421000D0A546F74616C2073636F72FA
:201D4A00653A202564000D0A46696E616C2073636F72653A202564000A0D557365207468D1
:201D6A006520706F74656E74696F6D6574657220746F2064726177206120626172206772A5
:201D8A00617068206F6E20746865207465726D696E616C2E0A0D497473206C656E6774680F
:201DAA002073686F756C6420626520612070657263656E74616765206F6620746865206DE1
:201DCA006178696D756D206C656E677468206173207370656369666965642062792074680F
:201DEA0065206E756D626572206F66204C454473206C69742E0A0A0D4E6F206C6974204C24
:201E0A0045447320696E646963617465207468617420746865206261722073686F756C6425
:201E2A00206265203025206F6620746865206D6178696D756D206C656E6774682C20312089
:201E4A006C6974204C454420696E6469636174657320612062617220323525206F6620745B
:201E6A006865206D6178696D756D206C656E6774682C0A0D32206C6974204C4544732069FC
:201E8A006E646963617465203530252C2033206C6974204C45447320696E64696361746505
:201EAA00203735252C20616E642034206C6974204C45447320696E646963617465203130E1
:201ECA0030252E0A0A0D596F752068617665206F6E65207365636F6E6420746F20647261FB
:201EEA00772074686520617070726F7072696174652067726170682E204966207468652089
:201F0A006772617068206973206C6F6E676572207468616E207468652064657369726564D6
:201F2A002076616C75652C207468652042494C45442077696C6C207475726E207265642E03
:201F4A000A0D4966207468652067726170682069732073686F72746572207468616E20749C
:201F6A00686520646573697265642076616C75652C207468652042494C45442077696C6C68
:201F8A00207475726E20677265656E2E0A0A0D41206D6178696D756D206F66203130207069
:201FAA006F696E747320617265206177617264656420666F72206561636820636F72726547
:201FCA00637420616E737765722E0A0D54776F20706F696E747320617265206465647563B7
:201FEA0074656420666F7220656163682063686172616374657220706F736974696F6E2000
:20200A006F66662E20546865726520617265203520726F756E64732E0A0A0A0D50726573DA
:20202A0073207468652070757368627574746F6E20746F2073746172742E000A0A0A0D5349
:20204A0054415254000A0A0D53636F726520666F72207468697320726F756E643A202564B4
:20206A000A0D546F74616C2073636F72653A202564000A0A0D46696E616C2073636F7265D5
:05208A003A202564006E
:200DAE007A10E4FBFCE58225E0F582E58333F583EB33FBEC33FCEB950EF5F0EC950F40064D
:090DCE00FCABF0438201DADD22E6
:0A008D00750801E4F509F50AF50B0A
:200DD70085080E85090F850A10850B11904E6D75F0C67441120F33AC82AD83AEF0FF74395D
:200DF7002CF50874303DF509E43EF50AE43FF50BAC0AAD0B8C82747F5DF58322AE82AF83C8
:0B0E17008E088F09750A00750B002281
:200E2200120EC5BC0003021068EF60FA30D502B2D1E583B4FF0302107EE582B4FF030210E2
:200E42007E258340072482400B021068248314500302107EF582EA8DF0A4A8F0EA8EF0A4F4
:200E620028F8E435F0F9EB8DF0A428E935F0F9E433CA8FF0A429F9EA35F0FAEBF88EF0A4DF
:200E820029F9EA35F0FAE433FBEC8DF0A429F9EA35F0FAE43BFBE88FF0A42AFAEB35F0FB87
:200EA200E433CCFD8EF0A42AFAEB35F0FBE43CFCED8FF0A42BFBEC35F0FC20E703120EF383
:030EC200021047D4
:200EC500AA82AB83A2F73392D1F5826002D2F7ACF0E58124F9F8E6FD08E6FE0886F008E690
:0E0EE500A2F73392D5F5836002D2F7AFF02268
:06004000E478FFF6D8FD94
:200EF3007804EC7011E58224F8500AF582E4C9CACBFCD8EF22EC7820058220E713D58201FE
:130F130022C3E933F9EA33FAEB33FBEC33FCD8EA1582220B
:20001E007900E94400601B7A0090209A780175AF00E493F2A308B8000205AFD9F4DAF275B0
:02003E00AFFF12
:0D0F2600E58330E7076382FF6383FFA322AA
:200F3300AAF0FBE582850EF0A4FCADF0E583850EF0A42DFDE435F0FEE582850FF0A42DFD69
:200F5300E5F03EFEE433FFEA850EF0A42EFEE5F03FFFE583850FF0A42EFEE5F03FFFE582D1
:200F73008510F0A42EFEE5F03FFFEB850EF0A42FFFEA850FF0A42FFFE5838510F0A42FFFB7
:0E0F9300E5828511F0A42F8EF08D838C8222D2
:200FA100E50E450F60467A01E50E25E0F50EE50F334012F50FE582950EE583950F40030AED
:200FC10080E6C3E50F13F50FE50E13F50EC3E582950EF5F0E583950F4005F58385F082C39E
:0D0FE100E50F13F50FE50E13F50EDAE12212
:200046007800E84400600A790175AF00E4F309D8FC7800E84400600C7900900001E4F0A3A9
:04006600D8FCD9FAEF
:200FEE00120EC57900E583B58202800D500312169DE583C3958212180AE5D0C465D020E11A
:20100E0017EA2DFAEB3EFBEC3FFC5009740112180AEC4480FC021047C3EA9DFAEB9EFBEC94
:19102E009FFC500FC3E499F9E49AFAE49BFBE49CFCB2D1120EF302104719
:20104700B98003EA13B34010EA2401FAE43BFBE43CFC50047C800582BC000EBB000BBA00ED
:2010670008E4F5F0F583F58222A2D1E582138CF092F78B838A8222E4F583F58275F080F4AD
:0F108700A2D11322E4F583F58275F0C0747F22A5
:20109600C00D85810D1200E4D00D2285825F85836085F061E4F55CF55DF55E850C62901054
:2010B60096021191C00D85810DE50D24FBFF8F62E4F55CF55DF55EE50D24FBF8865F0886A9
:0D10D60060088661901096121191D00D22D5
:2010E300AF82C052C053C0541210F08007C050C0518F8222158115811581055AE4B55A0280
:20110300055B22AF8274302FFF24C6500A74072FFF3000034307208F820210E3E582FFC48D
:20112300540FF582C007121106D007740F5FF58202110685820E85550F855610855711853E
:201143005812AA59751320EA2AFAE512235401FF8A064EFAE50F250FF50FE51033F510E5E5
:201163001133F511E51233F512C3EA950E4008EAC3950EFA430F01E51314FF8F1370C88552
:201183000F558510568511578512588A5922858250858351855C52855D53855E54E4F55A9A
:2011A300F55BAD5FAE60AF618D828E838FF0121792FC74012DF55FE43EF5608F61ECFF70A4
:2011C30003021696BF2502800302168EC201C202C203C204C205C206C207C20875630075CB
:2011E30064007565FFAA5FAB60AE618A828B838EF0121792FFA3AA82AB838A5F8B608E617A
:20120300BF25078F821210E38098BF3000402DEF24C6402874FFB56512E56475F00AA42FEB
:20122300FC24D0F56470C4D20280C0E56575F00AA4FC8F05ED2C24D0F56580AFBF2E0A742C
:20124300FFB565A775650080A2BF6100400CEF248540075307DFD2008002C200BF200280D4
:201263006DBF2B028063BF2D028059BF42028063BF43028068BF4403021434BF4603021428
:201283004ABF48030211EEBF4903021434BF4A030211EEBF4C028040BF4F0302143BBF5056
:2012A300030213C9BF5302805ABF54030211EEBF5503021440BF5803021445BF5A03021134
:2012C300EE02144ED2010211EED2030211EED2040211EED2060211EED2070211EE30060A45
:2012E300E56214F9896287078011E56224FEFE8E628E018705098706198D078F821210E3C2
:20130300021457E56224FDFE8E628E01870409870509870619198C558D568E578C828D83C9
:201323008EF01216B7AD82AE8374FFB565028D65200126C3ED95645020E564C39DF564AE5C
:20134300648E041EEC6010758220C006C0051210E3D005D00680EA8E64AE65855582855622
:20136300838557F0121792FCFF602F8E041EC374808CF063F08095F050208F82C006C0058F
:201383001210E3D005D006AA55AB56AC570ABA00010B8A558B568C5780C120010302145752
:2013A300C3ED95644003021457E564C39DF564AE648E041EEC7003021455758220C0061254
:2013C30010E3D00680EBE56224FDFC8C628C01870209870309870419198A558B568C57ACC6
:2013E30057BC800040047F438014BC600040047F50800BBC400040047F4980027F588F8291
:20140300C0071210E375823A1210E37582301210E37582781210E3D007BF4902800BBF50AC
:2014230002800685568212111F85558212111F8023D20575630A801C756308801775630A93
:201443008012756310800DD20880098F821210E380028E6430085CE56224FCFE8E628E011D
:2014630087020987030987040987061919198A558B568C578E5875558F755620755780853A
:20148300556785566885576974012567FAE43568FCAE698A558C568E57856782856883856D
:2014A30069F0121792FEFF70030211A58F821210E380CCE56370030211A575661930062DC1
:2014C300E56214F9896287048C027B007C007E008A558B568C578E58200566AA557B007C32
:2014E300007E008A558B568C578E588054300721E56224FCFE8E628E018702098703098726
:20150300040987061919198A558B568C578E588030E56224FEFE8E628E018704098706198A
:20152300EE3395E0FBFA8C558E568B578A58200510AA55AB567C007E008A558B568C578E34
:2015430058300522E55830E71BC3E49555FAE49556FBE49557FCE49558FE8A558B568C57D7
:201563008E588002C205D209A9667E00755900856382C006C001121136D001D00620090BDE
:20158300E559C4FCE7FB4CF7198002A7590EB209E55545564557455870D289668E05E564A6
:2015A3007003756401200224200121ED04FEAC64C3EE9C5015758220C006C005C00412101A
:2015C300E3D004D005D0061C80E68C6430050E75822DC0051210E3D00515648023ED6020A5
:2015E30030030E75822BC0051210E3D0051564800F30040C758220C0051210E3D00515646F
:20160300200126AE648E041EC3ED9C502F3002067B307C0080047B207C008B82C006C00561
:201623001210E3D005D00680DCC3ED95645008E564C39DF564800775640080028E64A966B5
:201643008D068E051EED6026B20920090A09E7C4540FFD8D5980078705740F5DF5598559C9
:2016630082C006C001121106D001D00680D42001030211A5AE648E051EED70030211A5750E
:1A1683008220C0061210E3D00680EB8F821210E30211A5855A82855B8322EB
:0B208F003C4E4F20464C4F41543E0099
:1A169D00E582C583F582A2D133A2D592D11392D5ECCFFCEBCEFBEACDFA22D5
:1816B700AA82AB831217926003A380F8C3E5829AF582E5839BF58322B0
:2016CF00120EC530D502B2D1BF0009BC000302108B02107EBC0003021068E583B4FF0BE594
:2016EF0082B4FF0302108B021068E582B4FF0302107EC395835007247F400B0210682480A1
:20170F0014500302107EF582C3ED9AEE9BEF9C40111582C3EA33F9EB33FAEC33FBE433FCE8
:20172F008005E4CCCBCAF9C08275F019C3E99DEA9EEB9FEC9400D5F002802D400EE99DF9FB
:20174F00EA9EFAEB9FFBEC9400FCC3B3E833F8E58233F582E58333F583C3E933F9EA33FA5B
:20176F00EB33FBEC33FC80C4B3E4F938FAE43582FBE43583FCD082500405827C80120EF3B6
:03178F0002105FE6
:0D00110075816912184DE582600302000E32
:1C17920020F71430F6148883A88220F507E6A88375830022E280F7E49322E02266
:0B17AE00E4AC82FBFAF974860218001C
:0817B9007F86121853F582220D
:2017C100C2D5E58330E70DD2D5E4C39582F582E49583F583E50F30E70BE4C3950EF50EE44E
:1617E100950FF50F120FA130D50BE4C39582F582E49583F58322AD
:1317F700FCABF0AA83A982749EC2D1F582120EF302104768
:20180A006040F82582500274FFF582E824F8501ECCCBCAF9E4CC24F85014CBCAF9E4CB24E6
:20182A00F8500BCAF9E4CA24F8500379002224086010F8C3EC13FCEB13FBEA13FAE913F999
:03184A00D8F122B0
:04184D00758200227E
:201851007F9E12187830D103021068C3EF9582500974FFF5F0F583F58222790012180A8979
:07187100828A838BF0EC2258
:12187800AA82AB83A2F73392D1F5826002D2F7ACF02275
:00000001FF
