:0400000002001132B7
:03000B00020B8D58
:20006A00E4F522F523F526753CFC753D01753EC9753F0175409D7541017542747543017555
:05008A0044537545011F
:0300990002000E54
:03000E00020117D5
:20009C0075B1677E007F01EE24FFFCEF34FFFD8C068D07EC4D70F0E5B130E7FB75B2882255
:2000BC00759850758920758DDCD28E438E10438780D29943A4012275FFDE75FFAD12009CAA
:2000DC001200BC43E10443E34022AF8210990280FB8F992210980280FBAF998F82C007128E
:2000FC0000E6D0078F82222098057582FF800BC2988599821200E6859982221200D312010A
:20011C00F0120211120200120215745FC0E07418C0E07480C0E0121062158115811581D226
:20013C008C120CDDE58260F9852226AE267F008E828F83120DAF20A01A30A11774CCC0E0AA
:20015C007418C0E07480C0E0121062158115811581804F30A01A20A1177402C0E07419C089
:20017C00E07480C0E0121062158115811581803220A01A20A1177438C0E07419C0E07480D8
:20019C00C0E01210621581158115818015746DC0E07419C0E07480C0E012106215811581D6
:2001BC001581120CDDE582608D20A00930A1061203A502012630A00920A1061206DE020122
:2001DC002630A00302012630A1030201261209350201262243A7FC53A7FE43B00153A6FC82
:2001FC0043A00322438E085389F0438901C28CE4F58AF58C2243A8822253BDFE53A5FE433F
:20021C00900175D10343AB0153ABFD75AA80120235AF828F307531002275AC0053AADF431E
:20023C00AA10E5AA30E5FB859C8222AE82AF83E4F522F523AC4C7D00C3EE9CEF9D5013C39B
:20025C00E5229451E52394015026758272120CB880EDAC4C7D00C3EC9EED9F5013C3E5225C
:20027C009451E52394015008758267120CB880ED22120CACE4F522F523D28C758272120C03
:20029C00B8741EB52206E4B52302800280F3758267120CB8743CB52206E4B52302800280E7
:2002BC00F3758272120CB8745AB52206E4B52302800280F3758267120CB87478B52206E4B1
:2002DC00B52302800280F3758272120CB87496B52206E4B52302800280F3758267120CB826
:2002FC0074B4B52206E4B52302800280F3758272120CB874D2B52206E4B52302800280F315
:20031C00758267120CB874F0B52206E4B52302800280F3758272120CB8740EB522FB740191
:20033C00B523F6758267120CB8742CB522FB7401B523F6758272120CB8744AB522FB7401A6
:20035C00B523F675826F120CB822120CACD28C758201120BAD7428B52206E4B523028002B2
:20037C0080F3758200120BAD7450B52206E4B52302800280F3758201120BAD7478B522064E
:20039C00E4B52302800280F32274A1C0E07419C0E07480C0E01210621581158115817E0032
:2003BC007F00758201C007C006120BAD758272120CB8D006D007C007C006120CDDE582D0A8
:2003DC0006D00760F1C007C0067424C0E0741CC0E07480C0E0121062158115811581D0062E
:2003FC00D0077D0175826FC007C006C005120CB8120BA0AC82D005D006D007D28CBC010373
:20041C00EC8001E4FBE4BC020104FAE4BC030104F9E4BC040104F8C374A99522E49523401E
:20043C005FEC7028758201C007C006C005C004C003C002C001C000120BADD000D001D0026C
:20045C00D003D004D005D006D00780CBEB600AC2B6D2B5D2B7D2B280BEEA600AC2B6C2B52A
:20047C00D2B7D2B280B1E9600AC2B6C2B5C2B7D2B280A4E860A1C2B6C2B5C2B7C2B28097E3
:20049C00C007C006C005C004120CACD004D005D006D007D28C30B074C007C006C005C00442
:2004BC00120235AB82D004D005D006D0078B30753100C374339530E49531400AD2B6D2B5C1
:2004DC00D2B7D2B280CFC374669530E49531400AC2B6D2B5D2B7D2B280BBC374999530E48E
:2004FC009531400AC2B6C2B5D2B7D2B280A7C374CC9530E49531400AC2B6C2B5C2B7D2B205
:20051C008093C2B6C2B5C2B7C2B28089C007C006C005C004120CACD004D005D006D007D2BF
:20053C008CC374079522E49523400AD2B6D2B5D2B7D2B280ECC007C006C005C004120CACD0
:20055C00D004D28C8C82C004120C83D004D005D006D0077452B522FB7401B523F6C007C022
:20057C0006C005C004120CACD004D005D006D007D28CC007C006C005C004120CDDE582D00A
:20059C0004D005D006D0077042C007C006C005C004120235AB828B3075310085308285312D
:2005BC0083120FE3A882A983AAF0FB754F00755004888289838AF0EB120BCC85824D120C4A
:2005DC0083D004D005D006D00780A7AA22AB23C007C006C005C004C003C002120366D0027D
:2005FC00D003D0048C51854D82C004C003C002120D25D002D003D004D005D006D007ECB5DE
:20061C004D07E4F532F5338006753201753300750EA9750F008A828B83C007C006C0051233
:20063C000D4AAB82AC83D005D006D0077401B5320614B5330280028007740A2BFBE43CFC40
:20065C00EB2EFEEC3FFFC007C006C005C003C004742CC0E0741CC0E07480C0E0121062E5F7
:20067C008124FBF581D005D006D007C007C006C005C006C007743EC0E0741CC0E07480C0B1
:20069C00E0121062E58124FBF581D005D006D007D28CC374A99522E4952350F60DED24FA6E
:2006BC004003020400C006C0077450C0E0741CC0E07480C0E0121062E58124FBF58112028D
:2006DC008D227462C0E0741CC0E07480C0E0121062158115811581E4F536F537758201128A
:2006FC000BADE4F538F539F546F547F548F549E4F538F539120CAC758272120CB8D28CC38C
:20071C00E5229452E5239401501C752464752500152474FFB524021525E524452570F17526
:20073C002464F52580D975826F120CB8120235AF828F30753100853082853183120FE3AC67
:20075C0082AD83AEF0FF754F007550048C828D838EF0EF120BCCAF828F467547008546821E
:20077C00120C83120CACD28CE5482548FEE54933EE243CF9870609870719C3E5229EE523A7
:20079C009F502C120CDDAF82BF01080538E4B538020539752464752500152474FFB52402C2
:2007BC001525E524452570F1752464F52580B9E546B53810E547B5390B740A2536F536E48A
:2007DC003537F537120CACD28C758201120BADC3E5229407E5239400501C75246475250077
:2007FC00152474FFB524021525E524452570F1752464F52580D9758200120BAD120CACD27B
:20081C008CC3E5229407E5239400501C752464752500152474FFB524021525E52445257088
:20083C00F1752464F52580D9758201120BAD853882854651120D25E546B5381CE547B5398C
:20085C001774FCC0E0741CC0E07480C0E012106215811581158180157410C0E0741DC0E061
:20087C007480C0E0121062158115811581C036C0377423C0E0741DC0E07480C0E012106215
:20089C00E58124FBF581120CACD28CC3E5229452E5239401501C752464752500152474FF1D
:2008BC00B524021525E524452570F1752464F52580D975826F120CB8120CACD28CC3E52295
:2008DC0094A9E5239400501C752464752500152474FFB524021525E524452570F17524648E
:2008FC00F52580D90548E4B548020549C3E5489405E54964809480500302070BC036C037E8
:20091C007435C0E0741DC0E07480C0E0121062E58124FBF58112028D227447C0E0741DC0BF
:20093C00E07480C0E0121062158115811581120CDDE58260F9741DC0E07420C0E07480C00D
:20095C00E0121062158115811581E4F536F537F52BF52C758201120BAD758272120CB8E4F4
:20097C00F527F528120BA0AF828F2D752E00852D82120C8375826F120CB8120CACD28CC3D9
:20099C00E5229452E52394015008120235120B4480ED120235AF828F307531001203668563
:2009BC003082853183120FE3AC82AD83AEF0FF754F0075503F8C828D838EF0EF120BCCAF46
:2009DC00827E00852D82E52E5403A2E0C58213C58213A2E0C58213C58213C582F583C0076B
:2009FC00C006120FD6AA82AB83ACF0FD754F0075503F8A828B838CF0ED120BCC85824CD0D4
:200A1C0006D0078F828E83120247852D82E52E5403A2E0C58213C58213A2E0C58213C58269
:200A3C0013C582F583120FD6AC82AD83AEF0FF754F0075503F8C828D838EF0EF120BCCAFEB
:200A5C00827E00853082853183C007C006120FE3AA82AB83ACF0FD754F0075503F8A828B27
:200A7C00838CF0ED120BCCAD82D006D0077C00EFC39DFFEE9CFE8F32C53225E0C53233F57B
:200A9C0033C3E532940AE5339400400E740AC39532F529E49533F52A8005E4F529F52AE519
:200ABC0029252BF52BE52A352CF52C7426C0E07420C0E07480C0E0121062158115811581A8
:200ADC00C02BC02CC029C02A7442C0E07420C0E07480C0E0121062E58124F9F581120CACEB
:200AFC00D28C74A9B52206E4B52302800280F30527E4B527020528C374059527748085281B
:200B1C00F063F08095F04003020980C02BC02C7457C0E07420C0E07480C0E0121062E581AF
:200B3C0024FBF58112028D22E5820303543FFF7E00C3EE9F5011758223C007C0061200E674
:200B5C00D006D0070E80EA743FC39FFF7E00C3EE9F5011758220C007C0061200E6D006D0CF
:200B7C00070E80EA75827C1200E675820D1200E622C0E0C0D0C28D0522E4B522020523D0F6
:200B9C00D0D0E032120D73750E05750F0012176922E58224FFE433F54E24FF92B6E54E248F
:200BBC00FF92B5E54E24FF92B7E54E24FF92B222AC82AD83AEF0FFE550C3954FFBC003E4FF
:200BDC00C0E0C0E0747FC0E07443C0E08C828D838EF0EF121677AC82AD83AEF0FFE5812420
:200BFC00FCF581D0038B82C007C006C005C004121756A882A983AAF0FBD004D005D006D0B8
:200C1C0007C004C005C006C007888289838AF0EB120DBEAC82AD83AEF0FFE58124FCF5814C
:200C3C00854F82C007C006C005C004121756A882A983AAF0FBD004D005D006D007C000C0EC
:200C5C0001C002C0038C828D838EF0EF120F7DAC82AD83AEF0FFE58124FCF5818C828D83B4
:200C7C008EF0EF12176122AF82758201C007120BADD007BF01004002C2B6BF02004002C26F
:200C9C00B5BF03004002C2B7BF04004002C2B222C28CE4F58AF58CF522F52322AF82BF47B1
:200CBC00028013BF52028008BF67028009BF720CC2B3D2B4800AD2B3C2B48004C2B3C2B40B
:200CDC00227F00D28CE4F53AF53B20B03985223A85233B7407253AFDE4353BFEC3E5229D59
:200CFC00E5239E501C752464752500152474FFB524021525E524452570F1752464F5258003
:200D1C00D230B0FD7F018F8222AF82C3EF95515008758272120CB88014C3E5519F500875FC
:0E0D3C008267120CB8800675826F120CB82206
:20185F000D0A0A53656C6563742061206D6F6465207573696E672074686520736C696465CA
:20187F002073776974636865732E0D0A5072657373207468652070757368627574746F6E90
:20189F0020746F2073656C6563742061206D6F64652C207075736820697420616761696E17
:2018BF0020746F20636F6E6669726D2E000D0A4D6F646520313A20536C696465207377691F
:2018DF007463682031206973204F4E2C20736C696465207377697463682032206973204FD4
:2018FF004646000D0A4D6F646520323A20536C696465207377697463682031206973204F96
:20191F0046462C20736C696465207377697463682032206973204F4E000D0A4D6F64652046
:20193F00333A20536C696465207377697463682031206973204F4E2C20736C69646520735E
:20195F0077697463682032206973204F4E000D0A4F46463A20536C696465207377697463B7
:20197F00682031206973204F46462C20736C696465207377697463682032206973204F4686
:20199F0046000A0A0D546865206669727374206D6F64652067656E65726174657320612014
:2019BF0072616E646F6D206E756D6265722066726F6D203020746F20342E0A0D54686520DD
:2019DF0067656E657261746564206E756D626572206C6967687473207570206E6F6E6520F0
:2019FF00746F20616C6C2034204C45447320696E2061206C696E652E0A0D546865204C4579
:201A1F0044732073746179206F6E20302E3520732C207468656E207475726E206F6666206D
:201A3F00616E6420612074696D657220697320737461727465642E0A0D54686520706C61BC
:201A5F00796572207468656E207475726E73206120706F74656E74696F6D65746572207725
:201A7F00686F736520766F6C746167652076616C7565206973207573656420746F20747570
:201A9F00726E206F6E20746865200A0D4C45447320696E2073657175656E636520756E7483
:201ABF00696C207468652073616D65207061747465726E20617070656172732E0A0D5468E0
:201ADF00652070757368627574746F6E206973207468656E207072657373656420746F2002
:201AFF0073746F70207468652074696D657220616E64207265636F726420746865204C455B
:201B1F0044207061747465726E2C0A0D7768696368206973207468656E20636F6D70617281
:201B3F00656420746F20746861742067656E657261746564206279207468652072616E64F9
:201B5F006F6D206E756D6265722E0A0D2053636F72696E67206973206261736564206F6E8F
:201B7F0020636F72726563746E65737320616E64207370656564206F6620656E7472792E82
:201B9F00205468652077686F6C652070726F63657373206973207265706561746564200AF7
:201BBF000D352074696D657320616E64207468652066696E616C2073636F7265206973204C
:201BDF00646973706C61796564206F6E20746865207465726D696E616C2E0A0D20546865C7
:201BFF00206C6F776572207468652073636F7265207468652062657474657220796F75203C
:201C1F006469642E000D0A5374617274000D0A526F756E642053636F72653A202564000DF6
:201C3F000A546F74616C2053636F72653A202564000D0A46696E616C2053636F72653A2001
:201C5F002564000D0A0A506C6179657220312077696C6C20686176652031207365636F6ED8
:201C7F006420746F2061646A7573742074686520706F74656E74696F6E6D65746572207421
:201C9F006F206C69676874207570204C4544732E0D0A506C617965722032206D7573742004
:201CBF007468656E20707573682074686520627574746F6E20666F722065616368204C4590
:201CDF0044207468617420776173206C69742077697468696E20312E35730D0A000D0A31C3
:201CFF003020706F696E7473206761696E656421000D0A3020706F696E7473206761696E6C
:201D1F00656421000D0A546F74616C2073636F72653A202564000D0A46696E616C20736389
:201D3F006F72653A202564000A0A0D5573652074686520706F74656E74696F6D65746572FD
:201D5F0020746F2064726177206120626172206772617068206F6E20746865207465726D55
:201D7F00696E616C2E0A0D497473206C656E6774682073686F756C6420626520612070657D
:201D9F007263656E74616765206F6620746865206D6178696D756D206C656E677468206144
:201DBF00732073706563696669656420627920746865206E756D626572206F66204C4544D6
:201DDF0073206C69742E0A0A0D4E6F206C6974204C45447320696E646963617465207468CE
:201DFF00617420746865206261722073686F756C6420626520656D7074792C2031206C69E2
:201E1F0074204C454420696E6469636174657320612062617220312F34206F662074686586
:201E3F00206D6178696D756D206C656E6774682C0A0D32206C6974204C45447320696E6422
:201E5F00696361746520312F322C2033206C6974204C45447320696E6469636174652033A7
:201E7F002F342C20616E642034206C6974204C45447320696E64696361746520612066755F
:201E9F006C6C206261722E0A0A0D596F752068617665206F6E65207365636F6E6420746FA5
:201EBF0020647261772074686520617070726F7072696174652067726170682E20496620BE
:201EDF00746865206772617068206973206C6F6E676572207468616E207468652064657345
:201EFF00697265642076616C75652C207468652042494C45442077696C6C207475726E20F4
:201F1F007265642E0A0D4966207468652067726170682069732073686F72746572207468C1
:201F3F00616E2074686520646573697265642076616C75652C207468652042494C454420E8
:201F5F0077696C6C207475726E20677265656E2E0A0A0D41206D6178696D756D206F6620CD
:201F7F00313020706F696E747320617265206177617264656420666F722065616368206339
:201F9F006F727265637420616E737765722E0A0D54776F20706F696E7473206172652064CB
:201FBF006564756374656420666F7220656163682063686172616374657220706F736974F0
:201FDF00696F6E206F66662E20546865726520617265203520726F756E64732E0A0A0D50F4
:201FFF0072657373207468652070757368627574746F6E20746F2073746172742E000A0A95
:20201F000D5354415254000A0A0D53636F726520666F72207468697320726F756E643A2008
:20203F002564000A0D546F74616C2073636F72653A2025640A0A0D000A0A0D46696E616C92
:0B205F002073636F72653A2025640057
:200D4A007A10E4FBFCE58225E0F582E58333F583EB33FBEC33FCEB950EF5F0EC950F4006B1
:090D6A00FCABF0438201DADD224A
:0A008F00750801E4F509F50AF50B08
:200D730085080E85090F850A10850B11904E6D75F0C67441120EC2AC82AD83AEF0FF743933
:200D93002CF50874303DF509E43EF50AE43FF50BAC0AAD0B8C82747F5DF58322AE82AF832C
:0B0DB3008E088F09750A00750B0022E6
:200DBE00120E61BC0003021010EF60FA30D502B2D1E583B4FF03021026E582B4FF0302105B
:200DDE0026258340072482400B0210102483145003021026F582EA8DF0A4A8F0EA8EF0A461
:200DFE0028F8E435F0F9EB8DF0A428E935F0F9E433CA8FF0A429F9EA35F0FAEBF88EF0A444
:200E1E0029F9EA35F0FAE433FBEC8DF0A429F9EA35F0FAE43BFBE88FF0A42AFAEB35F0FBEB
:200E3E00E433CCFD8EF0A42AFAEB35F0FBE43CFCED8FF0A42BFBEC35F0FC20E703120E8F4B
:030E5E00020FEF91
:200E6100AA82AB83A2F73392D1F5826002D2F7ACF0E58124F9F8E6FD08E6FE0886F008E6F4
:0E0E8100A2F73392D5F5836002D2F7AFF022CC
:06004000E478FFF6D8FD94
:200E8F007804EC7011E58224F8500AF582E4C9CACBFCD8EF22EC7820058220E713D5820162
:130EAF0022C3E933F9EA33FAEB33FBEC33FCD8EA15822270
:20001E007900E94400601B7A00902075780175AF00E493F2A308B8000205AFD9F4DAF275D5
:02003E00AFFF12
:200EC200AAF0FBE582850EF0A4FCADF0E583850EF0A42DFDE435F0FEE582850FF0A42DFDDB
:200EE200E5F03EFEE433FFEA850EF0A42EFEE5F03FFFE583850FF0A42EFEE5F03FFFE58243
:200F02008510F0A42EFEE5F03FFFEB850EF0A42FFFEA850FF0A42FFFE5838510F0A42FFF28
:0E0F2200E5828511F0A42F8EF08D838C822243
:200F3000E50E450F60467A01E50E25E0F50EE50F334012F50FE582950EE583950F40030A5E
:200F500080E6C3E50F13F50FE50E13F50EC3E582950EF5F0E583950F4005F58385F082C30F
:0D0F7000E50F13F50FE50E13F50EDAE12283
:200046007800E84400600A790175AF00E4F309D8FC7800E84400600C7900900001E4F0A3A9
:04006600D8FCD9FAEF
:200F7D00120E617900E583B58202800D5003121645E583C395821217DFE5D0C465D020E173
:200F9D0017EA2DFAEB3EFBEC3FFC500974011217DFEC4480FC020FEFC3EA9DFAEB9EFBEC8B
:190FBD009FFC500FC3E499F9E49AFAE49BFBE49CFCB2D1120E8F020FEF48
:0D0FD600AC83AB827A007900748E0217A8FC
:0C0FE300E4AC83AB82FAF9748E0217D5DF
:200FEF00B98003EA13B34010EA2401FAE43BFBE43CFC50047C800582BC000EBB000BBA0046
:20100F0008E4F5F0F583F58222A2D1E582138CF092F78B838A8222E4F583F58275F080F405
:0F102F00A2D11322E4F583F58275F0C0747F22FD
:20103E00C00D85810D1200E6D00D2285826185836285F063E4F55EF55FF560850C6490109C
:20105E003E021139C00D85810DE50D24FBFF8F64E4F55EF55FF560E50D24FBF886610886A7
:0D107E006208866390103E121139D00D22D9
:20108B00AF82C054C055C0561210988007C052C0538F8222158115811581055CE4B55C0222
:2010AB00055D22AF8274302FFF24C6500A74072FFF3000034307208F8202108BE582FFC43C
:2010CB00540FF582C0071210AED007740F5FF5820210AE85820E85570F8558108559118543
:2010EB005A12AA5B751320EA2AFAE512235401FF8A064EFAE50F250FF50FE51033F510E53A
:20110B001133F511E51233F512C3EA950E4008EAC3950EFA430F01E51314FF8F1370C885AA
:20112B000F5785105885115985125A8A5B22858252858353855E54855F55856056E4F55CD6
:20114B00F55DAD61AE62AF638D828E838FF012173AFC74012DF561E43EF5628F63ECFF7046
:20116B000302163EBF25028003021636C201C202C203C204C205C206C207C20875650075D1
:20118B0066007567FFAA61AB62AE638A828B838EF012173AFFA3AA82AB838A618B628E631A
:2011AB00BF25078F8212108B8098BF3000402DEF24C6402874FFB56712E56675F00AA42F98
:2011CB00FC24D0F56670C4D20280C0E56775F00AA4FC8F05ED2C24D0F56780AFBF2E0A747F
:2011EB00FFB567A775670080A2BF6100400CEF248540075307DFD2008002C200BF20028029
:20120B006DBF2B028063BF2D028059BF42028063BF43028068BF44030213DCBF46030213DA
:20122B00F2BF4803021196BF49030213DCBF4A03021196BF4C028040BF4F030213E3BF5068
:20124B0003021371BF5302805ABF5403021196BF55030213E8BF58030213EDBF5A030211EE
:20126B00960213F6D201021196D203021196D204021196D206021196D20702119630060A06
:20128B00E56414F9896487078011E56424FEFE8E648E018705098706198D078F8212108B6A
:2012AB000213FFE56424FDFE8E648E01870409870509870619198C578D588E598C828D8371
:2012CB008EF012165FAD82AE8374FFB567028D67200126C3ED95665020E566C39DF566AE03
:2012EB00668E041EEC6010758220C006C00512108BD005D00680EA8E66AE678557828558C9
:20130B00838559F012173AFCFF602F8E041EC374808CF063F08095F050208F82C006C0053D
:20132B0012108BD005D006AA57AB58AC590ABA00010B8A578B588C5980C12001030213FF4F
:20134B00C3ED956640030213FFE566C39DF566AE668E041EEC70030213FD758220C0061256
:20136B00108BD00680EBE56424FDFC8C648C01870209870309870419198A578B588C59AC6C
:20138B0059BC800040047F438014BC600040047F50800BBC400040047F4980027F588F82E7
:2013AB00C00712108B75823A12108B75823012108B75827812108BD007BF4902800BBF5065
:2013CB000280068558821210C78557821210C78023D20575650A801C756508801775650A94
:2013EB008012756510800DD20880098F8212108B80028E6630085CE56424FCFE8E648E01C6
:20140B0087020987030987040987061919198A578B588C598E5A75576A75582075598085A9
:20142B00576985586A85596B74012569FAE4356AFCAE6B8A578C588E59856982856A8385A9
:20144B006BF012173AFEFF700302114D8F8212108B80CCE565700302114D75681930062D73
:20146B00E56414F9896487048C027B007C007E008A578B588C598E5A200566AA577B007C7C
:20148B00007E008A578B588C598E5A8054300721E56424FCFE8E648E018702098703098772
:2014AB00040987061919198A578B588C598E5A8030E56424FEFE8E648E01870409870619D7
:2014CB00EE3395E0FBFA8C578E588B598A5A200510AA57AB587C007E008A578B588C598E7B
:2014EB005A300522E55A30E71BC3E49557FAE49558FBE49559FCE4955AFE8A578B588C591E
:20150B008E5A8002C205D209A9687E00755B00856582C006C0011210DED001D00620090B87
:20152B00E55BC4FCE7FB4CF7198002A75B0EB209E55745584559455A70D289688E05E566EE
:20154B007003756601200224200121ED04FEAC66C3EE9C5015758220C006C005C00412106E
:20156B008BD004D005D0061C80E68C6630050E75822DC00512108BD00515668023ED6020A9
:20158B0030030E75822BC00512108BD0051566800F30040C758220C00512108BD005156673
:2015AB00200126AE668E041EC3ED9C502F3002067B307C0080047B207C008B82C006C005B8
:2015CB0012108BD005D00680DCC3ED95665008E566C39DF566800775660080028E66A9685A
:2015EB008D068E051EED6026B20920090A09E7C4540FFD8D5B80078705740F5DF55B855B1C
:20160B0082C006C0011210AED001D00680D420010302114DAE668E051EED700302114D756D
:1A162B008220C00612108BD00680EB8F8212108B02114D855C82855D832247
:0B206A003C4E4F20464C4F41543E00BE
:1A164500E582C583F582A2D133A2D592D11392D5ECCFFCEBCEFBEACDFA222D
:18165F00AA82AB8312173A6003A380F8C3E5829AF582E5839BF5832260
:20167700120E6130D502B2D1BF0009BC0003021033021026BC0003021010E583B4FF0BE558
:2016970082B4FF03021033021010E582B4FF03021026C395835007247F400B021010248059
:2016B700145003021026F582C3ED9AEE9BEF9C40111582C3EA33F9EB33FAEC33FBE433FC99
:2016D7008005E4CCCBCAF9C08275F019C3E99DEA9EEB9FEC9400D5F002802D400EE99DF954
:2016F700EA9EFAEB9FFBEC9400FCC3B3E833F8E58233F582E58333F583C3E933F9EA33FAB4
:20171700EB33FBEC33FC80C4B3E4F938FAE43582FBE43583FCD082500405827C80120E8F72
:0317370002100796
:0D00110075816B121822E582600302000E5B
:1C173A0020F71430F6148883A88220F507E6A88375830022E280F7E49322E022BE
:0B175600E4AC82FBFAF974860217D5A0
:081761007F86121828F5822290
:20176900C2D5E58330E70DD2D5E4C39582F582E49583F583E50F30E70BE4C3950EF50EE4A6
:16178900950FF50F120F3030D50BE4C39582F582E49583F5832276
:20179F00FCABF0AA83A982749EF582C2D1EC30E716D2D1E9F42401F9EAF43400FAEBF43449
:0D17BF0000FBECF43400FC120E8F020FEF63
:1317CC00FCABF0AA83A982749EC2D1F582120E8F020FEF50
:2017DF006040F82582500274FFF582E824F8501ECCCBCAF9E4CC24F85014CBCAF9E4CB2412
:2017FF00F8500BCAF9E4CA24F8500379002224086010F8C3EC13FCEB13FBEA13FAE913F9C5
:03181F00D8F122DB
:0418220075820022A9
:201826007F9E12184D30D103021010C3EF9582500974FFF5F0F583F5822279001217DF8953
:07184600828A838BF0EC2283
:12184D00AA82AB83A2F73392D1F5826002D2F7ACF022A0
:00000001FF
