:0400000002001132B7
:03000B00020B2BBA
:20006A00E4F522F523753BFC753C01753DC9753E01753F9D754001754174754201754353E2
:03008A00754401B9
:0300970002000E56
:03000E00020115D7
:20009A0075B1677E007F01EE24FFFCEF34FFFD8C068D07EC4D70F0E5B130E7FB75B2882257
:2000BA00759850758920758DDCD28E438E10438780D29943A4012275FFDE75FFAD12009AAE
:2000DA001200BA43E10443E34022AF8210990280FB8F992210980280FBAF998F82C0071292
:2000FA0000E4D0078F82222098057582FF800BC2988599821200E4859982221200D1120112
:20011A00E01202011201F012020774D1C0E07413C0E07480C0E0120D80158115811581D2DF
:20013A008C120BCFE58260F920A01A30A117743EC0E07414C0E07480C0E0120D8015811553
:20015A00811581804F20A01A20A1177474C0E07414C0E07480C0E0120D8015811581158148
:20017A00803230A01A20A11774A9C0E07414C0E07480C0E0120D801581158115818015740E
:20019A00DFC0E07414C0E07480C0E0120D80158115811581120BCFE582608D20A00930A1CF
:2001BA00061202DE02012420A00920A10612071C02012420A00302012430A1030201241223
:2001DA00091A0201242243A7FC53A7FE43B00153A6FC43A00322438E085389F0438901C296
:2001FA008CE4F58AF58C2243A882D2AF2253BDFE53A5FE43900175D10343AB0153ABFD75C3
:20021A00AA802275AC0053AADF43AA10E5AA30E5FB859C8222AE82AF837401B50E1B8E33A4
:20023A00EFA2E7C53333C53333A2E7C53333C53333C5335403F53480187403B50E138E33D9
:20025A00EFC313C53313C533C313C53313C533F53485338285348322AE82AF83E4F522F5D0
:20027A0023AC4B7D00C3EE9CEF9D5013C3E5229451E52394015026758272120BB480EDAC7C
:20029A004B7D00C3EC9EED9F5013C3E5229451E52394015008758267120BB480ED22E4F505
:2002BA0022F523C374519522740195234015E52220E008758272120BB480E8758267120BFD
:2002DA00B480E0227413C0E07415C0E07480C0E0120D801581158115817E007F0075820194
:2002FA00C007C006120B4B758272120BB4D006D007D2B020B0FB7D008D040DEC7003020639
:20031A00FFC007C006C00574A6C0E07417C0E07480C0E0120D8015811581158175826F1220
:20033A000BB4120B3EAC82D005D006D007D28CBC0103EC8001E4FBE4BC020104FAE4BC032B
:20035A000104F9E4BC040104F8C374A99522E49523405FEC7028758201C007C006C005C084
:20037A0004C003C002C001C000120B4BD000D001D002D003D004D005D006D00780CBEB60BF
:20039A000AC2B6D2B5D2B7D2B280BEEA600AC2B6C2B5D2B7D2B280B1E9600AC2B6C2B5C26A
:2003BA00B7D2B280A4E860A1C2B6C2B5C2B7C2B28097C007C006C005C004120BA8D004D069
:2003DA0005D006D007D28C30B074C007C006C005C00412021DAB82D004D005D006D0078B4A
:2003FA004C754D00C37433954CE4954D400AD2B6D2B5D2B7D2B280CFC37466954CE4954DCB
:20041A00400AC2B6D2B5D2B7D2B280BBC37499954CE4954D400AC2B6C2B5D2B7D2B280A74D
:20043A00C374CC954CE4954D400AC2B6C2B5C2B7D2B28093C2B6C2B5C2B7C2B28089AA22FE
:20045A00AB23C007C006C005C004C003C002120BA8D002D003D004D005D006D007D28CC338
:20047A0074079522E49523400AD2B6D2B5D2B7D2B280ECC007C006C005C004C003C0021215
:20049A000BA8D002D003D004D005D006D007D28CC374079522E49523400AC2B6C2B5C2B7F3
:2004BA00C2B280ECC007C006C005C004C003C002120BA8D002D003D004D005D006D007D215
:2004DA008CC374079522E49523400AD2B6D2B5D2B7D2B280ECC007C006C005C004C003C07A
:2004FA0002120BA8D002D003D004D005D006D007EC702CC3E54C9433E54D940040217582BF
:20051A0067C007C006C005C004C003C002120BB4D002D003D004D005D006D007754E01BC73
:20053A000159C37433954CE4954D4023758272C007C006C005C004C003C002120BB4D0022C
:20055A00D003D004D005D006D007754E01802CC3E54C9466E54D94004021758267C007C0EE
:20057A0006C005C004C003C002120BB4D002D003D004D005D006D007754E01BC0259C3746F
:20059A0066954CE4954D4023758272C007C006C005C004C003C002120BB4D002D003D00483
:2005BA00D005D006D007754E01802CC3E54C9499E54D94004021758267C007C006C005C077
:2005DA0004C003C002120BB4D002D003D004D005D006D007754E01BC0359C37499954CE43B
:2005FA00954D4023758272C007C006C005C004C003C002120BB4D002D003D004D005D006A3
:20061A00D007754E01802CC3E54C94CCE54D94004021758267C007C006C005C004C003C007
:20063A0002120BB4D002D003D004D005D006D007754E01BC0427C374CC954CE4954D401D20
:20065A00758272C007C006C005C003C002120BB4D002D003D005D006D007754E01750EA958
:20067A00750F008A828B83C007C006C005120C20AB82AC83D005D006D0077401B54E077461
:20069A000A2BFBE43CFCEB2EFEEC3FFFC007C006C005C003C00474ACC0E07417C0E07480FB
:2006BA00C0E0120D80E58124FBF581D005D006D007C007C006C005C006C00774BCC0E07441
:2006DA0017C0E07480C0E0120D80E58124FBF581D005D006D007D28CC374A99522E4952308
:2006FA0050F6020312C006C00774CCC0E07417C0E07480C0E0120D80E58124FBF5811202A9
:20071A00B82274DCC0E07417C0E07480C0E0120D80158115811581E4F535F5367582011292
:20073A000B4BE4F537F538F545F546F547F548E4F537F538120BA8758272120BB4D28CC3C1
:20075A00E5229452E5239401501112021D750E00750F04120B6A120B7F80E475826F120B4E
:20077A00B412021D750E00750F04120B6AAF828F45754600854582120B7F120BA8D28CE538
:20079A00472547FEE54833EE243BF9870609870719C3E5229EE5239F5012120BCFAF82BF5E
:2007BA0001DD0537E4B537D7053880D3E545B53710E546B5380B740A2535F535E43536F53F
:2007DA0036120BA8D28C758201120B4BC3E5229407E523940040F5758200120B4B120BA8EC
:2007FA00D28CC3E5229407E523940040F5758201120B4B853782854550120BFBE545B53765
:20081A001CE546B538177476C0E07418C0E07480C0E0120D801581158115818015748AC075
:20083A00E07418C0E07480C0E0120D80158115811581C035C036749DC0E07418C0E07480E1
:20085A00C0E0120D80E58124FBF581120BA8D28CC3E5229452E52394015004D28C80F1753C
:20087A00826F120BB4120BA8D28CC3E52294A9E523940040F50547E4B547020548C3E54737
:20089A009405E548648094805003020749C035C03674AFC0E07418C0E07480C0E0120D80CE
:2008BA00E58124FBF581120BA8D28CE4F539F53AC3E5229452E5239401503E758272120B5E
:2008DA00B485223985233A74072539FEE4353AFFC3E5229EE5239F40EE758267120BB4856E
:2008FA00223985233A74072539FEE4353AFFC3E5229EE5239F50B980EC75826F120BB4229B
:20091A0074C1C0E07418C0E07480C0E0120D80158115811581120BCFE58260F974A4C0E063
:20093A00741BC0E07480C0E0120D80158115811581E4F535F536D2B6D2B5D2B7D2B275822D
:20095A0072120BB4E4F526F527120B3EAF828F2C752D00852C82120B7F75826F120BB4E44C
:20097A00F522F523D28CC3E5229451E5239401500812021D120AE280ED12021DE5820303F2
:20099A00543FFF8F2F753000C3E52294B5E5239401500AD2B6D2B5D2B7D2B280EBC3E522ED
:2009BA009419E5239402500AC2B6C2B5C2B7C2B280EBC3E522947DE5239402505DD2B6D2B1
:2009DA00B5D2B7D2B2E4F522F523852F82E530C4C582C4540F6582C582540FC5826582C527
:2009FA0082F583852C4B120272AE2CE52DC454F0CEC4CE6ECE54F0CE6EFFEEC3952FF58266
:200A1A00EF9530F583120C94AE82AF838E31EFC53125E0C53133F5328098740AC39531FE66
:200A3A00E49532FF4E600E740AC39531F528E49532F5298005E4F528F529E528252AF52A2A
:200A5A00E529352BF52BC02AC02BC028C02974AEC0E0741BC0E07480C0E0120D80E581249A
:200A7A00F9F581E4F522F523C3E52294A9E5239400501C752464752500152474FFB52402AD
:200A9A001525E524452570F1752464F52580D90526E4B526020527C374059526748085270F
:200ABA00F063F08095F04003020963C02AC02B74DBC0E0741BC0E07480C0E0120D80E58197
:200ADA0024FBF5811202B822E5820303543FFF7E00C3EE9F5011758223C007C0061200E4AE
:200AFA00D006D0070E80EA743FC39FFF7E00C3EE9F5011758220C007C0061200E4D006D034
:200B1A00070E80EA75827C1200E475820D1200E422C0E0C0D0C28D0522E4B522020523D05C
:200B3A00D0D0E032120C49750E05750F0012139722E58224FFE433F54F24FF92B6E54F24F0
:200B5A00FF92B5E54F24FF92B7E54F24FF92B222AF82E50FC3950EFE75F0FFEF848EF0A456
:200B7A00250EF58222AF82758201C007120B4BD007BF01004002C2B6BF02004002C2B5BFAD
:200B9A0003004002C2B7BF04004002C2B222C28CE4F58AF58CF522F52322AF82BF67028086
:200BBA0009BF720CC2B3D2B4800AD2B3C2B48004C2B3C2B4227F00D28CE4F539F53A20B0D6
:200BDA001D85223985233A74072539FDE4353AFEC3E5229DE5239E40EE30B0FD7F018F824C
:200BFA0022AF82C3EF95505008758272120BB48014C3E5509F5008758267120BB4800675B2
:060C1A00826F120BB422F0
:2013D1000D0A0A53656C6563742061206D6F6465207573696E672074686520736C6964655D
:2013F1002073776974636865732E0D0A5072657373207468652070757368627574746F6E23
:2014110020746F2073656C6563742061206D6F64652C207075736820697420616761696EA9
:2014310020746F20636F6E6669726D2E000D0A4D6F646520313A20536C69646520737769B1
:201451007463682031206973204F4E2C20736C696465207377697463682032206973204F66
:201471004646000D0A4D6F646520323A20536C696465207377697463682031206973204F28
:201491004E2C20736C696465207377697463682032206973204F4E000D0A4D6F64652033E4
:2014B1003A20536C696465207377697463682031206973204F46462C20736C6964652073E6
:2014D10077697463682032206973204F4E000D0A4F46463A20536C6964652073776974634A
:2014F100682031206973204F46462C20736C696465207377697463682032206973204F4619
:2015110046000A20546865206669727374206D6F64652067656E657261746573206120722B
:20153100616E646F6D206E756D6265722066726F6D203020746F20342E0A2020200A0D5464
:2015510068652067656E657261746564206E756D626572206C6967687473207570206E6F88
:201571006E6520746F20616C6C2034204C45447320696E2061206C696E652E2054686520A0
:201591004C4544732073746179206F6E20302E3520732C207468656E207475726E206F66F5
:2015B100660A2020200A0D616E6420612074696D657220697320737461727465642E205489
:2015D100686520706C61796572207468656E207475726E73206120706F74656E74696F6DD5
:2015F100657465722077686F736520766F6C746167652076616C75652069732075736564C8
:2016110020746F207475726E206F6E207468650A2020200A0D4C45447320696E2073657146
:2016310075656E636520756E74696C207468652073616D65207061747465726E2061707097
:20165100656172732E205468652070757368627574746F6E206973207468656E20707265B1
:201671007373656420746F2073746F70207468652074696D657220616E640A2020200A0D4B
:201691007265636F726420746865204C4544207061747465726E2C207768696368206973EB
:2016B100207468656E20636F6D706172656420746F20746861742067656E6572617465643C
:2016D100206279207468652072616E646F6D206E756D6265722E2053636F72696E672069A7
:2016F100730A2020200A0D6261736564206F6E20636F72726563746E65737320616E6420AB
:201711007370656564206F6620656E7472792E205468652077686F6C652070726F63657306
:201731007320697320726570656174656420352074696D657320616E642074686520666985
:201751006E616C2073636F72652069730A2020200A0D646973706C61796564206F6E207434
:201771006865207465726D696E616C2E20546865206C6F776572207468652073636F7265BA
:20179100207468652062657474657220796F75206469642E00537461727400526F756E641F
:2017B1002053636F72653A20256400546F74616C2053636F72653A2025640046696E616C2C
:2017D1002053636F72653A202564000D0A0A506C6179657220312077696C6C20686176657E
:2017F1002031207365636F6E6420746F2061646A7573742074686520706F74656E74696F4A
:201811006E6D6574657220746F206C69676874207570204C4544732E0D0A506C61796572D2
:201831002032206D757374207468656E20707573682074686520627574746F6E20666F7229
:201851002065616368204C4544207468617420776173206C69742077697468696E20312EFA
:2018710035730D0A000D0A313020706F696E7473206761696E656421000D0A3020706F690B
:201891006E7473206761696E656421000D0A546F74616C2073636F72653A202564000D0AE8
:2018B10046696E616C2073636F72653A202564000A0D5573652074686520706F74656E74AF
:2018D100696F6D6574657220746F2064726177206120626172206772617068206F6E207498
:2018F1006865207465726D696E616C2E0A0D497473206C656E6774682073686F756C6420A8
:20191100626520612070657263656E74616765206F6620746865206D6178696D756D206C30
:20193100656E6774682061732073706563696669656420627920746865206E756D626572BB
:20195100206F66204C454473206C69742E0A0A0D4E6F206C6974204C45447320696E64690F
:2019710063617465207468617420746865206261722073686F756C64206265203025206F98
:201991006620746865206D6178696D756D206C656E6774682C2031206C6974204C454420B4
:2019B100696E6469636174657320612062617220323525206F6620746865206D6178696D4E
:2019D100756D206C656E6774682C0A0D32206C6974204C45447320696E64696361746520AB
:2019F1003530252C2033206C6974204C45447320696E646963617465203735252C20616ECF
:201A1100642034206C6974204C45447320696E64696361746520313030252E0A0A0D596FDE
:201A3100752068617665206F6E65207365636F6E6420746F2064726177207468652061703B
:201A510070726F7072696174652067726170682E20496620746865206772617068206973E1
:201A7100206C6F6E676572207468616E2074686520646573697265642076616C75652C20F9
:201A91007468652042494C45442077696C6C207475726E207265642E0A0D49662074686503
:201AB1002067726170682069732073686F72746572207468616E207468652064657369725D
:201AD10065642076616C75652C207468652042494C45442077696C6C207475726E20677228
:201AF10065656E2E0A0A0D41206D6178696D756D206F6620313020706F696E7473206172C9
:201B110065206177617264656420666F72206561636820636F727265637420616E737765EF
:201B3100722E0A0D54776F20706F696E74732061726520646564756374656420666F7220A5
:201B5100656163682063686172616374657220706F736974696F6E206F66662E20546865B7
:201B7100726520617265203520726F756E64732E0A0A0A0D50726573732074686520707549
:201B91007368627574746F6E20746F2073746172742E000A0A0A0D5354415254000A0A0D64
:201BB10053636F726520666F72207468697320726F756E643A2025640A0D546F74616C2073
:1D1BD10073636F72653A202564000A0A0D46696E616C2073636F72653A20256400CE
:200C20007A10E4FBFCE58225E0F582E58333F583EB33FBEC33FCEB950EF5F0EC950F4006DC
:090C4000FCABF0438201DADD2275
:0A008D00750801E4F509F50AF50B0A
:200C490085080E85090F850A10850B11904E6D75F0C67441120CA1AC82AD83AEF0FF743981
:200C69002CF50874303DF509E43EF50AE43FF50BAC0AAD0B8C82747F5DF58322AE82AF8357
:0B0C89008E088F09750A00750B002211
:06004000E478FFF6D8FD94
:20001E007900E94400601B7A00901BF9780175AF00E493F2A308B8000205AFD9F4DAF27556
:02003E00AFFF12
:0D0C9400E58330E7076382FF6383FFA3223F
:200CA100AAF0FBE582850EF0A4FCADF0E583850EF0A42DFDE435F0FEE582850FF0A42DFDFE
:200CC100E5F03EFEE433FFEA850EF0A42EFEE5F03FFFE583850FF0A42EFEE5F03FFFE58266
:200CE1008510F0A42EFEE5F03FFFEB850EF0A42FFFEA850FF0A42FFFE5838510F0A42FFF4C
:0E0D0100E5828511F0A42F8EF08D838C822266
:200D0F00E50E450F60467A01E50E25E0F50EE50F334012F50FE582950EE583950F40030A81
:200D2F0080E6C3E50F13F50FE50E13F50EC3E582950EF5F0E583950F4005F58385F082C332
:0D0D4F00E50F13F50FE50E13F50EDAE122A6
:200046007800E84400600A790175AF00E4F309D8FC7800E84400600C7900900001E4F0A3A9
:04006600D8FCD9FAEF
:200D5C00C00D85810D1200E4D00D2285826085836185F062E4F55DF55EF55F850C63900D8D
:200D7C005C020E57C00D85810DE50D24FBFF8F63E4F55DF55EF55FE50D24FBF88660088658
:0D0D9C0061088662900D5C120E57D00D228A
:200DA900AF82C053C054C055120DB68007C051C0528F8222158115811581055BE4B55B02F3
:200DC900055C22AF8274302FFF24C6500A74072FFF3000034307208F82020DA9E582FFC407
:200DE900540FF582C007120DCCD007740F5FF582020DCC85820E85560F85571085581185F5
:200E09005912AA5A751320EA2AFAE512235401FF8A064EFAE50F250FF50FE51033F510E520
:200E29001133F511E51233F512C3EA950E4008EAC3950EFA430F01E51314FF8F1370C8858F
:200E49000F568510578511588512598A5A22858251858352855D53855E54855F55E4F55BC9
:200E6900F55CAD60AE61AF628D828E838FF012137BFC74012DF560E43EF5618F62ECFF70F5
:200E89000302135CBF25028003021354C201C202C203C204C205C206C207C2087564007581
:200EA90065007566FFAA60AB61AE628A828B838EF012137BFFA3AA82AB838A608B618E62CA
:200EC900BF25078F82120DA98098BF3000402DEF24C6402874FFB56612E56575F00AA42F64
:200EE900FC24D0F56570C4D20280C0E56675F00AA4FC8F05ED2C24D0F56680AFBF2E0A7467
:200F0900FFB566A775660080A2BF6100400CEF248540075307DFD2008002C200BF2002800F
:200F29006DBF2B028063BF2D028059BF42028063BF43028068BF44030210FABF46030211A6
:200F490010BF4803020EB4BF49030210FABF4A03020EB4BF4C028040BF4F03021101BF50C2
:200F69000302108FBF5302805ABF5403020EB4BF5503021106BF580302110BBF5A03020E68
:200F8900B4021114D201020EB4D203020EB4D204020EB4D206020EB4D207020EB430060A2A
:200FA900E56314F9896387078011E56324FEFE8E638E018705098706198D078F82120DA938
:200FC90002111DE56324FDFE8E638E01870409870509870619198C568D578E588C828D833F
:200FE9008EF0121363AD82AE8374FFB566028D66200126C3ED95655020E565C39DF565AEEC
:20100900658E041EEC6010758220C006C005120DA9D005D00680EA8E65AE66855682855797
:20102900838558F012137BFCFF602F8E041EC374808CF063F08095F050208F82C006C005E6
:20104900120DA9D005D006AA56AB57AC580ABA00010B8A568B578C5880C120010302111D03
:20106900C3ED9565400302111DE565C39DF565AE658E041EEC700302111B758220C0061207
:201089000DA9D00680EBE56324FDFC8C638C01870209870309870419198A568B578C58AC3B
:2010A90058BC800040047F438014BC600040047F50800BBC400040047F4980027F588F82CD
:2010C900C007120DA975823A120DA9758230120DA9758278120DA9D007BF4902800BBF50DE
:2010E900028006855782120DE5855682120DE58023D20575640A801C756408801775640A48
:201109008012756410800DD20880098F82120DA980028E6530085CE56324FCFE8E638E0193
:2011290087020987030987040987061919198A568B578C588E597556EE75571B7558808516
:20114900566885576985586A74012568FAE43569FCAE6A8A568C578E58856882856983859C
:201169006AF012137BFEFF7003020E6B8F82120DA980CCE5647003020E6B75671930062DCD
:20118900E56314F9896387048C027B007C007E008A568B578C588E59200566AA567B007C68
:2011A900007E008A568B578C588E598054300721E56324FCFE8E638E01870209870309875D
:2011C900040987061919198A568B578C588E598030E56324FEFE8E638E01870409870619C2
:2011E900EE3395E0FBFA8C568E578B588A59200510AA56AB577C007E008A568B578C588E69
:2012090059300522E55930E71BC3E49556FAE49557FBE49558FCE49559FE8A568B578C580B
:201229008E598002C205D209A9677E00755A00856482C006C001120DFCD001D00620090B55
:20124900E55AC4FCE7FB4CF7198002A75A0EB209E55645574558455970D289678E05E565DB
:201269007003756501200224200121ED04FEAC65C3EE9C5015758220C006C005C004120D58
:20128900A9D004D005D0061C80E68C6530050E75822DC005120DA9D00515658023ED602057
:2012A90030030E75822BC005120DA9D0051565800F30040C758220C005120DA9D005156524
:2012C900200126AE658E041EC3ED9C502F3002067B307C0080047B207C008B82C006C0059E
:2012E900120DA9D005D00680DCC3ED95655008E565C39DF565800775650080028E65A9672A
:201309008D068E051EED6026B20920090A09E7C4540FFD8D5A80078705740F5DF55A855A03
:2013290082C006C001120DCCD001D00680D4200103020E6BAE658E051EED7003020E6B7502
:1A1349008220C006120DA9D00680EB8F82120DA9020E6B855B82855C8322DD
:0B1BEE003C4E4F20464C4F41543E003F
:18136300AA82AB8312137B6003A380F8C3E5829AF582E5839BF5832222
:0D00110075816A1213CDE582600302000EB6
:1C137B0020F71430F6148883A88220F507E6A88375830022E280F7E49322E02281
:20139700C2D5E58330E70DD2D5E4C39582F582E49583F583E50F30E70BE4C3950EF50EE47C
:1613B700950FF50F120D0F30D50BE4C39582F582E49583F583226F
:0413CD007582002203
:00000001FF
