:0400000002001132B7
:03000B000209C522
:20006A00E4F522F523F5267536FC7537017538C9753901753A9D753B01753C74753D017585
:05008A003E53753F012B
:0300990002000E54
:03000E00020117D5
:20009C0075B1677E007F01EE24FFFCEF34FFFD8C068D07EC4D70F0E5B130E7FB75B2882255
:2000BC00759850758920758DDCD28E438E10438780D29943A4012275FFDE75FFAD12009CAA
:2000DC001200BC43E10443E34022AF8210990280FB8F992210980280FBAF998F82C007128E
:2000FC0000E6D0078F82222098057582FF800BC2988599821200E6859982221200D312010A
:20011C00F0120211120200120215746AC0E07416C0E07480C0E0120E9A158115811581D2E7
:20013C008C120B15E58260F9852226AE267F008E828F83120BE720A01A30A11774D7C0E032
:20015C007416C0E07480C0E0120E9A158115811581804F30A01A20A117740DC0E07417C04C
:20017C00E07480C0E0120E9A158115811581803220A01A20A1177443C0E07417C0E0748099
:20019C00C0E0120E9A15811581158180157478C0E07417C0E07480C0E0120E9A1581158161
:2001BC001581120B15E582608D20A00930A10612035F02012630A00920A10612057302019D
:2001DC002630A00302012630A1030201261207930201262243A7FC53A7FE43B00153A6FC26
:2001FC0043A00322438E085389F0438901C28CE4F58AF58C2243A8822253BDFE53A5FE433F
:20021C00900175D10343AB0153ABFD75AA80120235AF828F2C752D002275AC0053AADF4326
:20023C00AA10E5AA30E5FB859C8222120AE4E4F522F523D28C758272120AF0741EB522062F
:20025C00E4B52302800280F3758267120AF0743CB52206E4B52302800280F3758272120AA0
:20027C00F0745AB52206E4B52302800280F3758267120AF07478B52206E4B5230280028021
:20029C00F3758272120AF07496B52206E4B52302800280F3758267120AF074B4B52206E4ED
:2002BC00B52302800280F3758272120AF074D2B52206E4B52302800280F3758267120AF09E
:2002DC0074F0B52206E4B52302800280F3758272120AF0740EB522FB7401B523F6758267A4
:2002FC00120AF0742CB522FB7401B523F6758272120AF0744AB522FB7401B523F675826F73
:20031C00120AF022120AE4D28C7582011209E57428B52206E4B52302800280F37582001208
:20033C0009E57450B52206E4B52302800280F37582011209E57478B52206E4B5230280025E
:20035C0080F32274ACC0E07417C0E07480C0E0120E9A1581158115817E007F00758201C03C
:20037C0007C0061209E5758272120AF0D006D007C007C006120B15E582D006D00760F1C08E
:20039C0007C006742CC0E0741AC0E07480C0E0120E9A158115811581D006D0077D007582D5
:2003BC006FC007C006C005120AF01209D8AC82C004120AE4D004D28C8C82C004120ABBD0C4
:2003DC0004D005D006D0077452B522FB7401B523F6C007C006C005C004120AE4120320D085
:2003FC0004D005D006D007D28CC007C006C005C004120B15E582D004D005D006D007704246
:20041C00C007C006C005C004120235AB828B2C752D00852C82852D83120E1BA882A983AA38
:20043C00F0FB754A00754B04888289838AF0EB120A04858244120ABBD004D005D006D0071F
:20045C0080A7AB44A922AA23C007C006C005C004C003C002C001120320D001D002D003D0FB
:20047C00048C4C8B82C004C003C002C001120B5DD001D002D003D004D005D006D007EBB587
:20049C000407E4F52EF52F8006752E01752F00E92457F582EA34FFF583750EA9750F00C05C
:2004BC0007C006C005120B82AB82AC83D005D006D0077401B52E0614B52F0280028007743C
:2004DC000A2BFBE43CFCEB2EFEEC3FFFC007C006C005C003C0047434C0E0741AC0E0748030
:2004FC00C0E0120E9AE58124FBF581D005D006D007C007C006C005C006C0077446C0E0745C
:20051C001AC0E07480C0E0120E9AE58124FBF581D005D006D007D28CC374A99522E49523A9
:20053C0050F6C007C006C005120AE4D005D006D0070DBD050050030203BAC006C00774584B
:20055C00C0E0741AC0E07480C0E0120E9AE58124FBF58112024722746BC0E0741AC0E074CA
:20057C0080C0E0120E9A158115811581E4F530F5317582011209E5E4F532F533F540F541FE
:20059C00F542F543E4F532F533120AE4758272120AF0D28CC3E5229452E5239401502212F9
:2005BC00023512158EAC82AD83AEF0FF754A00754B048C828D838EF0EF120A04120ABB80B3
:2005DC00D375826F120AF012023512158EAC82AD83AEF0FF754A00754B048C828D838EF0A2
:2005FC00EF120A04AF828F40754100854082120ABB120AE4D28CE5422542FEE54333EE24A5
:20061C0036F9870609870719C3E5229EE5239F5012120B15AF82BF01DD0532E4B532D70503
:20063C003380D3E540B53210E541B5330B740A2530F530E43531F531120AE4D28C75820125
:20065C001209E5C3E5229407E523940040F57582001209E5120AE4D28CC3E5229407E52386
:20067C00940040F57582011209E585328285404C120B5DE540B5321CE541B533177405C053
:20069C00E0741BC0E07480C0E0120E9A15811581158180157419C0E0741BC0E07480C0E09A
:2006BC00120E9A158115811581C030C031742CC0E0741BC0E07480C0E0120E9AE58124FB7F
:2006DC00F581120AE4D28CC3E5229452E52394015004D28C80F175826F120AF0120AE4D276
:2006FC008CC3E52294A9E523940040F50542E4B542020543C3E5429405E54364809480501B
:20071C00030205A0C030C031743EC0E0741BC0E07480C0E0120E9AE58124FBF581120AE468
:20073C00D28CE4F534F535C3E5229452E5239401503E758272120AF0852234852335740785
:20075C002534FEE43535FFC3E5229EE5239F40EE758267120AF085223485233574072534A6
:20077C00FEE43535FFC3E5229EE5239F50B980EC75826F120AF0227450C0E0741BC0E074F3
:20079C0080C0E0120E9A158115811581120B15E58260F97426C0E0741EC0E07480C0E0129D
:2007BC000E9A158115811581E4F530F531F527F5287582011209E5758272120AF07F00E47B
:2007DC00F530F531C0071209D8AE828E29752A00852982120ABB75826F120AF0120AE4D029
:2007FC0007D28CC3E5229452E5239401500CC00712023512097CD00780E9C007120235AE2A
:20081C00828E2C752D00120320D007E529452A7006F545F54680457401B5290614B52A0257
:20083C008002800875451075460080307402B52906E4B52A0280028008754520754600801F
:20085C001B7403B52906E4B52A0280028008754530754600800675453F754600852C8285A0
:20087C002D83C007120E1BAB82AC83ADF0FE754A00754B3F8B828C838DF0EE120A04854584
:20089C004C120B5D852C82852D83120E1BAB82AC83ADF0FE754A00754B3F8B828C838DF085
:2008BC00EE120A04AE827D00E545C39EF582E5469DF583120CFAAD82AE83D0078D2EEEC562
:2008DC002E25E0C52E33F52FC3E52E940AE52F9400500E740AC3952EF530E4952FF531808E
:2008FC0005E4F530F531E5302527F527E5313528F528C007C030C031742FC0E0741EC0E07E
:20091C007480C0E0120E9AE58124FBF581C027C028744BC0E0741EC0E07480C0E0120E9AC4
:20093C00E58124FBF581120AE4D007D28C74A9B52206E4B52302800280F30FEF24FA40035F
:20095C000207DBC027C0287460C0E0741EC0E07480C0E0120E9AE58124FBF581120247225C
:20097C00E5820303543FFF7E00C3EE9F5011758223C007C0061200E6D006D0070E80EA74F5
:20099C003FC39FFF7E00C3EE9F5011758220C007C0061200E6D006D0070E80EA75827C1226
:2009BC0000E675820D1200E622C0E0C0D0C28D0522E4B522020523D0D0D0E032120BAB75CD
:2009DC000E05750F001215A122E58224FFE433F54924FF92B6E54924FF92B5E54924FF92B5
:2009FC00B7E54924FF92B222AC82AD83AEF0FFE54BC3954AFBC003E4C0E0C0E0747FC0E02B
:200A1C007443C0E08C828D838EF0EF1214AFAC82AD83AEF0FFE58124FCF581D0038B82C06C
:200A3C0007C006C005C00412158EA882A983AAF0FBD004D005D006D007C004C005C006C03F
:200A5C0007888289838AF0EB120BF6AC82AD83AEF0FFE58124FCF581854A82C007C006C050
:200A7C0005C00412158EA882A983AAF0FBD004D005D006D007C000C001C002C0038C828DFA
:200A9C00838EF0EF120DC2AC82AD83AEF0FFE58124FCF5818C828D838EF0EF12159922AF56
:200ABC0082758201C0071209E5D007BF01004002C2B6BF02004002C2B5BF03004002C2B791
:200ADC00BF04004002C2B222C28CE4F58AF58CF522F52322AF82BF47028013BF5202800875
:200AFC00BF67028009BF720CC2B3D2B4800AD2B3C2B48004C2B3C2B4227F00D28CE4F534F1
:200B1C00F53520B03985223485233574072534FDE43535FEC3E5229DE5239E501C7524643B
:200B3C00752500152474FFB524021525E524452570F1752464F52580D230B0FD7F018F8293
:200B5C0022AF82C3EF954C5008758272120AF08014C3E54C9F5008758267120AF0800675E2
:060B7C00826F120AF02254
:20166A000D0A0A53656C6563742061206D6F6465207573696E672074686520736C696465C1
:20168A002073776974636865732E0D0A5072657373207468652070757368627574746F6E87
:2016AA0020746F2073656C6563742061206D6F64652C207075736820697420616761696E0E
:2016CA0020746F20636F6E6669726D2E000D0A4D6F646520313A20536C6964652073776916
:2016EA007463682031206973204F4E2C20736C696465207377697463682032206973204FCB
:20170A004646000D0A4D6F646520323A20536C696465207377697463682031206973204F8C
:20172A0046462C20736C696465207377697463682032206973204F4E000D0A4D6F6465203D
:20174A00333A20536C696465207377697463682031206973204F4E2C20736C696465207355
:20176A0077697463682032206973204F4E000D0A4F46463A20536C696465207377697463AE
:20178A00682031206973204F46462C20736C696465207377697463682032206973204F467D
:2017AA0046000A0A0D546865206669727374206D6F64652067656E6572617465732061200B
:2017CA0072616E646F6D206E756D6265722066726F6D203020746F20342E0A0D54686520D4
:2017EA0067656E657261746564206E756D626572206C6967687473207570206E6F6E6520E7
:20180A00746F20616C6C2034204C45447320696E2061206C696E652E0A0D546865204C456F
:20182A0044732073746179206F6E20302E3520732C207468656E207475726E206F66662064
:20184A00616E6420612074696D657220697320737461727465642E0A0D54686520706C61B3
:20186A00796572207468656E207475726E73206120706F74656E74696F6D6574657220771C
:20188A00686F736520766F6C746167652076616C7565206973207573656420746F20747567
:2018AA00726E206F6E0A0D746865204C45447320696E2073657175656E636520756E746931
:2018CA006C207468652073616D65207061747465726E20617070656172732E0A0D546865DB
:2018EA002070757368627574746F6E206973207468656E207072657373656420746F2073EB
:20190A00746F70207468652074696D657220616E64207265636F726420746865204C454480
:20192A00207061747465726E2C0A0D7768696368206973207468656E20636F6D7061726557
:20194A006420746F20746861742067656E657261746564206279207468652072616E646FE6
:20196A006D206E756D6265722E0A0D53636F72696E67206973206261736564206F6E206392
:20198A006F72726563746E65737320616E64207370656564206F6620656E7472792E0A0DE5
:2019AA005468652077686F6C652070726F63657373206973207265706561746564203520C3
:2019CA0074696D657320616E64207468650A0D66696E616C2073636F7265206973206469E1
:2019EA0073706C61796564206F6E20746865207465726D696E616C2E0A0D546865206C6FB0
:201A0A00776572207468652073636F7265207468652062657474657220796F7520646964FC
:201A2A002E000D0A5374617274000D0A526F756E642053636F72653A202564000D0A546F51
:201A4A0074616C2053636F72653A202564000A0A0D46696E616C2053636F72653A20256432
:201A6A00000D0A0A506C6179657220312077696C6C20686176652031207365636F6E6420D4
:201A8A00746F2061646A7573742074686520706F74656E74696F6E6D6574657220746F200D
:201AAA006C69676874207570204C4544732E0D0A506C617965722032206D757374207468AE
:201ACA00656E20707573682074686520627574746F6E20666F722065616368204C454420FF
:201AEA007468617420776173206C69742077697468696E20312E35730D0A000D0A313020CE
:201B0A00706F696E7473206761696E656421000D0A3020706F696E7473206761696E6564E9
:201B2A0021000D0A546F74616C2073636F72653A202564000D0A46696E616C2073636F7268
:201B4A00653A202564000A0A0D5573652074686520706F74656E74696F6D65746572207441
:201B6A006F2064726177206120626172206772617068206F6E20746865207465726D696E09
:201B8A00616C2E0A0D497473206C656E6774682073686F756C642062652061207065726376
:201BAA00656E74616765206F6620746865206D6178696D756D206C656E677468206173207D
:201BCA0073706563696669656420627920746865206E756D626572206F66204C45447320CD
:201BEA006C69742E0A0A0D4E6F206C6974204C45447320696E646963617465207468617483
:201C0A0020746865206261722073686F756C6420626520656D7074792C2031206C69742019
:201C2A004C454420696E6469636174657320612062617220312F34206F6620746865206D84
:201C4A006178696D756D206C656E6774682C0A0D32206C6974204C45447320696E646963DA
:201C6A0061746520312F322C2033206C6974204C45447320696E64696361746520332F3407
:201C8A002C20616E642034206C6974204C45447320696E64696361746520612066756C6CE1
:201CAA00206261722E0A0A0D596F752068617665206F6E65207365636F6E6420746F2064F0
:201CCA007261772074686520617070726F7072696174652067726170682E2049662074685D
:201CEA0065206772617068206973206C6F6E676572207468616E207468652064657369723D
:201D0A0065642076616C75652C207468652042494C45442077696C6C207475726E207265EE
:201D2A00642E0A0D4966207468652067726170682069732073686F72746572207468616EC0
:201D4A002074686520646573697265642076616C75652C207468652042494C4544207769CE
:201D6A006C6C207475726E20677265656E2E0A0A0D41206D6178696D756D206F6620313043
:201D8A0020706F696E747320617265206177617264656420666F72206561636820636F72B0
:201DAA007265637420616E737765722E0A0D54776F20706F696E74732061726520646564DA
:201DCA00756374656420666F7220656163682063686172616374657220706F736974696FD8
:201DEA006E206F66662E20546865726520617265203520726F756E64732E0A0A0D507265EC
:201E0A007373207468652070757368627574746F6E20746F2073746172742E000A0A0D5302
:201E2A0054415254000A0A0D53636F726520666F72207468697320726F756E643A202564D6
:201E4A00000A0D546F74616C2073636F72653A2025640A0A0D000A0A0D46696E616C20737F
:091E6A00636F72653A20256400E3
:200B82007A10E4FBFCE58225E0F582E58333F583EB33FBEC33FCEB950EF5F0EC950F40067B
:090BA200FCABF0438201DADD2214
:0A008F00750801E4F509F50AF50B08
:200BAB0085080E85090F850A10850B11904E6D75F0C67441120D07AC82AD83AEF0FF7439B9
:200BCB002CF50874303DF509E43EF50AE43FF50BAC0AAD0B8C82747F5DF58322AE82AF83F6
:0B0BEB008E088F09750A00750B0022B0
:200BF600120C99BC0003020E48EF60FA30D502B2D1E583B4FF03020E5EE582B4FF03020E85
:200C16005E258340072482400B020E482483145003020E5EF582EA8DF0A4A8F0EA8EF0A486
:200C360028F8E435F0F9EB8DF0A428E935F0F9E433CA8FF0A429F9EA35F0FAEBF88EF0A40D
:200C560029F9EA35F0FAE433FBEC8DF0A429F9EA35F0FAE43BFBE88FF0A42AFAEB35F0FBB5
:200C7600E433CCFD8EF0A42AFAEB35F0FBE43CFCED8FF0A42BFBEC35F0FC20E703120CC7DF
:030C9600020E2724
:200C9900AA82AB83A2F73392D1F5826002D2F7ACF0E58124F9F8E6FD08E6FE0886F008E6BE
:0E0CB900A2F73392D5F5836002D2F7AFF02296
:06004000E478FFF6D8FD94
:200CC7007804EC7011E58224F8500AF582E4C9CACBFCD8EF22EC7820058220E713D582012C
:130CE70022C3E933F9EA33FAEB33FBEC33FCD8EA1582223A
:20001E007900E94400601B7A00901E7E780175AF00E493F2A308B8000205AFD9F4DAF275CE
:02003E00AFFF12
:0D0CFA00E58330E7076382FF6383FFA322D9
:200D0700AAF0FBE582850EF0A4FCADF0E583850EF0A42DFDE435F0FEE582850FF0A42DFD97
:200D2700E5F03EFEE433FFEA850EF0A42EFEE5F03FFFE583850FF0A42EFEE5F03FFFE582FF
:200D47008510F0A42EFEE5F03FFFEB850EF0A42FFFEA850FF0A42FFFE5838510F0A42FFFE5
:0E0D6700E5828511F0A42F8EF08D838C822200
:200D7500E50E450F60467A01E50E25E0F50EE50F334012F50FE582950EE583950F40030A1B
:200D950080E6C3E50F13F50FE50E13F50EC3E582950EF5F0E583950F4005F58385F082C3CC
:0D0DB500E50F13F50FE50E13F50EDAE12240
:200046007800E84400600A790175AF00E4F309D8FC7800E84400600C7900900001E4F0A3A9
:04006600D8FCD9FAEF
:200DC200120C997900E583B58202800D500312147DE583C395821215EAE5D0C465D020E1BB
:200DE20017EA2DFAEB3EFBEC3FFC500974011215EAEC4480FC020E27C3EA9DFAEB9EFBEC08
:190E02009FFC500FC3E499F9E49AFAE49BFBE49CFCB2D1120CC7020E2797
:0C0E1B00E4AC83AB82FAF9748E0215E09F
:200E2700B98003EA13B34010EA2401FAE43BFBE43CFC50047C800582BC000EBB000BBA000F
:200E470008E4F5F0F583F58222A2D1E582138CF092F78B838A8222E4F583F58275F080F4CF
:0F0E6700A2D11322E4F583F58275F0C0747F22C7
:200E7600C00D85810D1200E6D00D2285825C85835D85F05EE4F559F55AF55B850C5F900E8B
:200E960076020F71C00D85810DE50D24FBFF8F5FE4F559F55AF55BE50D24FBF8865C08861C
:0D0EB6005D08865E900E76120F71D00D2241
:200EC300AF82C04FC050C051120ED08007C04DC04E8F82221581158115810557E4B55702D9
:200EE300055822AF8274302FFF24C6500A74072FFF3000034307208F82020EC3E582FFC4D5
:200F0300540FF582C007120EE6D007740F5FF582020EE685820E85520F85531085541185AF
:200F23005512AA56751320EA2AFAE512235401FF8A064EFAE50F250FF50FE51033F510E50D
:200F43001133F511E51233F512C3EA950E4008EAC3950EFA430F01E51314FF8F1370C88574
:200F63000F528510538511548512558A562285824D85834E85594F855A50855B51E4F557E6
:200F8300F558AD5CAE5DAF5E8D828E838FF0121572FC74012DF55CE43EF55D8F5EECFF70FD
:200FA30003021476BF2502800302146EC201C202C203C204C205C206C207C2087560007534
:200FC30061007562FFAA5CAB5DAE5E8A828B838EF0121572FFA3AA82AB838A5C8B5D8E5ED6
:200FE300BF25078F82120EC38098BF3000402DEF24C6402874FFB56212E56175F00AA42F36
:20100300FC24D0F56170C4D20280C0E56275F00AA4FC8F05ED2C24D0F56280AFBF2E0A7457
:20102300FFB562A775620080A2BF6100400CEF248540075307DFD2008002C200BF200280FC
:201043006DBF2B028063BF2D028059BF42028063BF43028068BF4403021214BF460302126E
:201063002ABF4803020FCEBF4903021214BF4A03020FCEBF4C028040BF4F0302121BBF5020
:20108300030211A9BF5302805ABF5403020FCEBF5503021220BF5803021225BF5A03020FE0
:2010A300CE02122ED201020FCED203020FCED204020FCED206020FCED207020FCE30060A53
:2010C300E55F14F9895F87078011E55F24FEFE8E5F8E018705098706198D078F82120EC312
:2010E300021237E55F24FDFE8E5F8E01870409870509870619198C528D538E548C828D831D
:201103008EF0121497AD82AE8374FFB562028D62200126C3ED95615020E561C39DF561AEAF
:20112300618E041EEC6010758220C006C005120EC3D005D00680EA8E61AE62855282855375
:20114300838554F0121572FCFF602F8E041EC374808CF063F08095F050208F82C006C005D6
:20116300120EC3D005D006AA52AB53AC540ABA00010B8A528B538C5480C1200103021237CA
:20118300C3ED95614003021237E561C39DF561AE618E041EEC7003021235758220C00612C6
:2011A3000EC3D00680EBE55F24FDFC8C5F8C01870209870309870419198A528B538C54AC19
:2011C30054BC800040047F438014BC600040047F50800BBC400040047F4980027F588F82B6
:2011E300C007120EC375823A120EC3758230120EC3758278120EC3D007BF4902800BBF5057
:20120300028006855382120EFF855282120EFF8023D20575600A801C756008801775600A0A
:201223008012756010800DD20880098F82120EC380028E6130085CE55F24FCFE8E5F8E016D
:2012430087020987030987040987061919198A528B538C548E5575527375531E755480858F
:20126300526485536585546674012564FAE43565FCAE668A528C538E5485648285658385B9
:2012830066F0121572FEFF7003020F858F82120EC380CCE5607003020F8575631930062D74
:2012A300E55F14F9895F87048C027B007C007E008A528B538C548E55200566AA527B007C69
:2012C300007E008A528B538C548E558054300721E55F24FCFE8E5F8E01870209870309875A
:2012E300040987061919198A528B538C548E558030E55F24FEFE8E5F8E01870409870619BF
:20130300EE3395E0FBFA8C528E538B548A55200510AA52AB537C007E008A528B538C548E71
:2013230055300522E55530E71BC3E49552FAE49553FBE49554FCE49555FE8A528B538C5414
:201343008E558002C205D209A9637E00755600856082C006C001120F16D001D00620090B2E
:20136300E556C4FCE7FB4CF7198002A7560EB209E55245534554455570D289638E05E561E0
:201383007003756101200224200121ED04FEAC61C3EE9C5015758220C006C005C004120E44
:2013A300C3D004D005D0061C80E68C6130050E75822DC005120EC3D00515618023ED60200F
:2013C30030030E75822BC005120EC3D0051561800F30040C758220C005120EC3D0051561DB
:2013E300200126AE618E041EC3ED9C502F3002067B307C0080047B207C008B82C006C00587
:20140300120EC3D005D00680DCC3ED95615008E561C39DF561800775610080028E61A9630B
:201423008D068E051EED6026B20920090A09E7C4540FFD8D5680078705740F5DF5568556F4
:2014430082C006C001120EE6D001D00680D4200103020F85AE618E051EED7003020F85759A
:1A1463008220C006120EC3D00680EB8F82120EC3020F858557828558832279
:0B1E73003C4E4F20464C4F41543E00B7
:1A147D00E582C583F582A2D133A2D592D11392D5ECCFFCEBCEFBEACDFA22F7
:18149700AA82AB831215726003A380F8C3E5829AF582E5839BF58322F4
:2014AF00120C9930D502B2D1BF0009BC0003020E6B020E5EBC0003020E48E583B4FF0BE54A
:2014CF0082B4FF03020E6B020E48E582B4FF03020E5EC395835007247F400B020E4824804B
:2014EF00145003020E5EF582C3ED9AEE9BEF9C40111582C3EA33F9EB33FAEC33FBE433FC2D
:20150F008005E4CCCBCAF9C08275F019C3E99DEA9EEB9FEC9400D5F002802D400EE99DF91D
:20152F00EA9EFAEB9FFBEC9400FCC3B3E833F8E58233F582E58333F583C3E933F9EA33FA7D
:20154F00EB33FBEC33FC80C4B3E4F938FAE43582FBE43583FCD082500405827C80120CC706
:03156F00020E3F2A
:0D00110075816612162DE582600302000E57
:1C15720020F71430F6148883A88220F507E6A88375830022E280F7E49322E02288
:0B158E00E4AC82FBFAF974860215E061
:081599007F86121633F5822251
:2015A100C2D5E58330E70DD2D5E4C39582F582E49583F583E50F30E70BE4C3950EF50EE470
:1615C100950FF50F120D7530D50BE4C39582F582E49583F58322FD
:1315D700FCABF0AA83A982749EC2D1F582120CC7020E27DA
:2015EA006040F82582500274FFF582E824F8501ECCCBCAF9E4CC24F85014CBCAF9E4CB2409
:20160A00F8500BCAF9E4CA24F8500379002224086010F8C3EC13FCEB13FBEA13FAE913F9BB
:03162A00D8F122D2
:04162D0075820022A0
:201631007F9E12165830D103020E48C3EF9582500974FFF5F0F583F5822279001215EA8902
:07165100828A838BF0EC227A
:12165800AA82AB83A2F73392D1F5826002D2F7ACF02297
:00000001FF
