:0400000002001132B7
:03000B000209FCEB
:20006A00E4F522F523F5267536FC7537017538C9753901753A9D753B01753C74753D017585
:05008A003E53753F012B
:0300990002000E54
:03000E00020117D5
:20009C0075B1677E007F01EE24FFFCEF34FFFD8C068D07EC4D70F0E5B130E7FB75B2882255
:2000BC00759850758920758DDCD28E438E10438780D29943A4012275FFDE75FFAD12009CAA
:2000DC001200BC43E10443E34022AF8210990280FB8F992210980280FBAF998F82C007128E
:2000FC0000E6D0078F82222098057582FF800BC2988599821200E6859982221200D312010A
:20011C00F012021112020012021574A1C0E07416C0E07480C0E0120ED1158115811581D279
:20013C008C120B4CE58260F9852226AE267F008E828F83120C1E20A01A30A117740EC0E08C
:20015C007417C0E07480C0E0120ED1158115811581804F30A01A20A1177444C0E07417C0DD
:20017C00E07480C0E0120ED1158115811581803220A01A20A117747AC0E07417C0E074802B
:20019C00C0E0120ED1158115811581801574AFC0E07417C0E07480C0E0120ED115811581BC
:2001BC001581120B4CE582608D20A00930A10612035F02012630A00920A106120573020166
:2001DC002630A00302012630A1030201261207CA0201262243A7FC53A7FE43B00153A6FCEF
:2001FC0043A00322438E085389F0438901C28CE4F58AF58C2243A8822253BDFE53A5FE433F
:20021C00900175D10343AB0153ABFD75AA80120235AF828F2C752D002275AC0053AADF4326
:20023C00AA10E5AA30E5FB859C8222120B1BE4F522F523D28C758272120B27741EB52206BF
:20025C00E4B52302800280F3758267120B27743CB52206E4B52302800280F3758272120B67
:20027C0027745AB52206E4B52302800280F3758267120B277478B52206E4B52302800280B2
:20029C00F3758272120B277496B52206E4B52302800280F3758267120B2774B4B52206E47D
:2002BC00B52302800280F3758272120B2774D2B52206E4B52302800280F3758267120B272E
:2002DC0074F0B52206E4B52302800280F3758272120B27740EB522FB7401B523F67582676C
:2002FC00120B27742CB522FB7401B523F6758272120B27744AB522FB7401B523F675826F03
:20031C00120B2722120B1BD28C758201120A1C7428B52206E4B52302800280F37582001260
:20033C000A1C7450B52206E4B52302800280F3758201120A1C7478B52206E4B523028002EE
:20035C0080F32274E3C0E07417C0E07480C0E0120ED11581158115817E007F00758201C0CE
:20037C0007C006120A1C758272120B27D006D007C007C006120B4CE582D006D00760F1C0E7
:20039C0007C0067463C0E0741AC0E07480C0E0120ED1158115811581D006D0077D00758267
:2003BC006FC007C006C005120B27120A0FAC82C004120B1BD004D28C8C82C004120AF2D0E5
:2003DC0004D005D006D0077452B522FB7401B523F6C007C006C005C004120B1B120320D04D
:2003FC0004D005D006D007D28CC007C006C005C004120B4CE582D004D005D006D00770420F
:20041C00C007C006C005C004120235AB828B2C752D00852C82852D83120E52A882A983AA01
:20043C00F0FB754A00754B04888289838AF0EB120A3B858244120AF2D004D005D006D007B1
:20045C0080A7AB44A922AA23C007C006C005C004C003C002C001120320D001D002D003D0FB
:20047C00048C4C8B82C004C003C002C001120B94D001D002D003D004D005D006D007EBB550
:20049C000407E4F52EF52F8006752E01752F00E92457F582EA34FFF583750EA9750F00C05C
:2004BC0007C006C005120BB9AB82AC83D005D006D0077401B52E0614B52F02800280077405
:2004DC000A2BFBE43CFCEB2EFEEC3FFFC007C006C005C003C004746BC0E0741AC0E07480F9
:2004FC00C0E0120ED1E58124FBF581D005D006D007C007C006C005C006C007747DC0E074EE
:20051C001AC0E07480C0E0120ED1E58124FBF581D005D006D007D28CC374A99522E4952372
:20053C0050F6C007C006C005120B1BD005D006D0070DBD050050030203BAC006C007748FDC
:20055C00C0E0741AC0E07480C0E0120ED1E58124FBF5811202472274A2C0E0741AC0E0745C
:20057C0080C0E0120ED1158115811581E4F530F531758201120A1CE4F532F533F540F5418F
:20059C00F542F543E4F532F533120B1B758272120B27D28CC3E5229452E5239401501C752C
:2005BC002464752500152474FFB524021525E524452570F1752464F52580D975826F120B75
:2005DC0027120235AF828F2C752D00852C82852D83120E52AC82AD83AEF0FF754A00754BAD
:2005FC00048C828D838EF0EF120A3BAF828F40754100854082120AF2120B1BD28CE542250C
:20061C0042FEE54333EE2436F9870609870719C3E5229EE5239F502C120B4CAF82BF0108B8
:20063C000532E4B532020533752464752500152474FFB524021525E524452570F175246439
:20065C00F52580B9E540B53210E541B5330B740A2530F530E43531F531120B1BD28C758201
:20067C0001120A1CC3E5229407E5239400501C752464752500152474FFB524021525E52457
:20069C00452570F1752464F52580D9758200120A1C120B1BD28CC3E5229407E523940050ED
:2006BC001C752464752500152474FFB524021525E524452570F1752464F52580D97582016E
:2006DC00120A1C85328285404C120B94E540B5321CE541B53317743CC0E0741BC0E074800B
:2006FC00C0E0120ED115811581158180157450C0E0741BC0E07480C0E0120ED115811581B2
:20071C001581C030C0317463C0E0741BC0E07480C0E0120ED1E58124FBF581120B1BD28C8A
:20073C00C3E5229452E5239401501C752464752500152474FFB524021525E524452570F1B8
:20075C00752464F52580D975826F120B27120B1BD28CC3E52294A9E5239400501C752464C1
:20077C00752500152474FFB524021525E524452570F1752464F52580D90542E4B542020595
:20079C0043C3E5429405E5436480948050030205A0C030C0317475C0E0741BC0E07480C010
:2007BC00E0120ED1E58124FBF581120247227487C0E0741BC0E07480C0E0120ED1158115DA
:2007DC00811581120B4CE58260F9745DC0E0741EC0E07480C0E0120ED1158115811581E4EF
:2007FC00F530F531F527F528758201120A1C758272120B277F00E4F530F531C007120A0FDC
:20081C00AE828E29752A00852982120AF275826F120B27120B1BD007D28CC3E5229452E54C
:20083C00239401500CC0071202351209B3D00780E9C007120235AE828E2C752D0012032099
:20085C00D007E529452A7006F545F54680457401B5290614B52A028002800875451075469B
:20087C000080307402B52906E4B52A0280028008754520754600801B7403B52906E4B52A35
:20089C000280028008754530754600800675453F754600852C82852D83C007120E52AB8283
:2008BC00AC83ADF0FE754A00754B3F8B828C838DF0EE120A3B85454C120B94852C82852D0A
:2008DC0083120E52AB82AC83ADF0FE754A00754B3F8B828C838DF0EE120A3BAE827D00E5E2
:2008FC0045C39EF582E5469DF583120D31AD82AE83D0078D2EEEC52E25E0C52E33F52FC34A
:20091C00E52E940AE52F9400500E740AC3952EF530E4952FF5318005E4F530F531E530251F
:20093C0027F527E5313528F528C007C030C0317466C0E0741EC0E07480C0E0120ED1E58189
:20095C0024FBF581C027C0287482C0E0741EC0E07480C0E0120ED1E58124FBF581120B1B97
:20097C00D007D28C74A9B52206E4B52302800280F30FEF24FA4003020812C027C028749724
:20099C00C0E0741EC0E07480C0E0120ED1E58124FBF58112024722E5820303543FFF7E00EF
:2009BC00C3EE9F5011758223C007C0061200E6D006D0070E80EA743FC39FFF7E00C3EE9FC4
:2009DC005011758220C007C0061200E6D006D0070E80EA75827C1200E675820D1200E62250
:2009FC00C0E0C0D0C28D0522E4B522020523D0D0D0E032120BE2750E05750F001215D822A2
:200A1C00E58224FFE433F54924FF92B6E54924FF92B5E54924FF92B7E54924FF92B222ACDB
:200A3C0082AD83AEF0FFE54BC3954AFBC003E4C0E0C0E0747FC0E07443C0E08C828D838E01
:200A5C00F0EF1214E6AC82AD83AEF0FFE58124FCF581D0038B82C007C006C005C00412157B
:200A7C00C5A882A983AAF0FBD004D005D006D007C004C005C006C007888289838AF0EB12B1
:200A9C000C2DAC82AD83AEF0FFE58124FCF581854A82C007C006C005C0041215C5A882A9E4
:200ABC0083AAF0FBD004D005D006D007C000C001C002C0038C828D838EF0EF120DF9AC82D5
:200ADC00AD83AEF0FFE58124FCF5818C828D838EF0EF1215D022AF82758201C007120A1C65
:200AFC00D007BF01004002C2B6BF02004002C2B5BF03004002C2B7BF04004002C2B222C235
:200B1C008CE4F58AF58CF522F52322AF82BF47028013BF52028008BF67028009BF720CC2E1
:200B3C00B3D2B4800AD2B3C2B48004C2B3C2B4227F00D28CE4F534F53520B03985223485CD
:200B5C00233574072534FDE43535FEC3E5229DE5239E501C752464752500152474FFB5246F
:200B7C00021525E524452570F1752464F52580D230B0FD7F018F8222AF82C3EF954C500834
:1D0B9C00758272120B278014C3E54C9F5008758267120B27800675826F120B27221C
:2016A1000D0A0A53656C6563742061206D6F6465207573696E672074686520736C6964658A
:2016C1002073776974636865732E0D0A5072657373207468652070757368627574746F6E50
:2016E10020746F2073656C6563742061206D6F64652C207075736820697420616761696ED7
:2017010020746F20636F6E6669726D2E000D0A4D6F646520313A20536C69646520737769DE
:201721007463682031206973204F4E2C20736C696465207377697463682032206973204F93
:201741004646000D0A4D6F646520323A20536C696465207377697463682031206973204F55
:2017610046462C20736C696465207377697463682032206973204F4E000D0A4D6F64652006
:20178100333A20536C696465207377697463682031206973204F4E2C20736C69646520731E
:2017A10077697463682032206973204F4E000D0A4F46463A20536C69646520737769746377
:2017C100682031206973204F46462C20736C696465207377697463682032206973204F4646
:2017E10046000A0A0D546865206669727374206D6F64652067656E657261746573206120D4
:2018010072616E646F6D206E756D6265722066726F6D203020746F20342E0A0D546865209C
:2018210067656E657261746564206E756D626572206C6967687473207570206E6F6E6520AF
:20184100746F20616C6C2034204C45447320696E2061206C696E652E0A0D546865204C4538
:2018610044732073746179206F6E20302E3520732C207468656E207475726E206F6666202D
:20188100616E6420612074696D657220697320737461727465642E0A0D54686520706C617C
:2018A100796572207468656E207475726E73206120706F74656E74696F6D657465722077E5
:2018C100686F736520766F6C746167652076616C7565206973207573656420746F20747530
:2018E100726E206F6E0A0D746865204C45447320696E2073657175656E636520756E7469FA
:201901006C207468652073616D65207061747465726E20617070656172732E0A0D546865A3
:201921002070757368627574746F6E206973207468656E207072657373656420746F2073B3
:20194100746F70207468652074696D657220616E64207265636F726420746865204C454449
:20196100207061747465726E2C0A0D7768696368206973207468656E20636F6D7061726520
:201981006420746F20746861742067656E657261746564206279207468652072616E646FAF
:2019A1006D206E756D6265722E0A0D53636F72696E67206973206261736564206F6E20635B
:2019C1006F72726563746E65737320616E64207370656564206F6620656E7472792E0A0DAE
:2019E1005468652077686F6C652070726F636573732069732072657065617465642035208C
:201A010074696D657320616E64207468650A0D66696E616C2073636F7265206973206469A9
:201A210073706C61796564206F6E20746865207465726D696E616C2E0A0D546865206C6F78
:201A4100776572207468652073636F7265207468652062657474657220796F7520646964C5
:201A61002E000D0A5374617274000D0A526F756E642053636F72653A202564000D0A546F1A
:201A810074616C2053636F72653A202564000A0A0D46696E616C2053636F72653A202564FB
:201AA100000D0A0A506C6179657220312077696C6C20686176652031207365636F6E64209D
:201AC100746F2061646A7573742074686520706F74656E74696F6E6D6574657220746F20D6
:201AE1006C69676874207570204C4544732E0D0A506C617965722032206D75737420746877
:201B0100656E20707573682074686520627574746F6E20666F722065616368204C454420C7
:201B21007468617420776173206C69742077697468696E20312E35730D0A000D0A31302096
:201B4100706F696E7473206761696E656421000D0A3020706F696E7473206761696E6564B2
:201B610021000D0A546F74616C2073636F72653A202564000D0A46696E616C2073636F7231
:201B8100653A202564000A0A0D5573652074686520706F74656E74696F6D6574657220740A
:201BA1006F2064726177206120626172206772617068206F6E20746865207465726D696ED2
:201BC100616C2E0A0D497473206C656E6774682073686F756C64206265206120706572633F
:201BE100656E74616765206F6620746865206D6178696D756D206C656E6774682061732046
:201C010073706563696669656420627920746865206E756D626572206F66204C4544732095
:201C21006C69742E0A0A0D4E6F206C6974204C45447320696E64696361746520746861744B
:201C410020746865206261722073686F756C6420626520656D7074792C2031206C697420E2
:201C61004C454420696E6469636174657320612062617220312F34206F6620746865206D4D
:201C81006178696D756D206C656E6774682C0A0D32206C6974204C45447320696E646963A3
:201CA10061746520312F322C2033206C6974204C45447320696E64696361746520332F34D0
:201CC1002C20616E642034206C6974204C45447320696E64696361746520612066756C6CAA
:201CE100206261722E0A0A0D596F752068617665206F6E65207365636F6E6420746F2064B9
:201D01007261772074686520617070726F7072696174652067726170682E20496620746825
:201D210065206772617068206973206C6F6E676572207468616E2074686520646573697205
:201D410065642076616C75652C207468652042494C45442077696C6C207475726E207265B7
:201D6100642E0A0D4966207468652067726170682069732073686F72746572207468616E89
:201D81002074686520646573697265642076616C75652C207468652042494C454420776997
:201DA1006C6C207475726E20677265656E2E0A0A0D41206D6178696D756D206F662031300C
:201DC10020706F696E747320617265206177617264656420666F72206561636820636F7279
:201DE1007265637420616E737765722E0A0D54776F20706F696E74732061726520646564A3
:201E0100756374656420666F7220656163682063686172616374657220706F736974696FA0
:201E21006E206F66662E20546865726520617265203520726F756E64732E0A0A0D507265B4
:201E41007373207468652070757368627574746F6E20746F2073746172742E000A0A0D53CB
:201E610054415254000A0A0D53636F726520666F72207468697320726F756E643A2025649F
:201E8100000A0D546F74616C2073636F72653A2025640A0A0D000A0A0D46696E616C207348
:091EA100636F72653A20256400AC
:200BB9007A10E4FBFCE58225E0F582E58333F583EB33FBEC33FCEB950EF5F0EC950F400644
:090BD900FCABF0438201DADD22DD
:0A008F00750801E4F509F50AF50B08
:200BE20085080E85090F850A10850B11904E6D75F0C67441120D3EAC82AD83AEF0FF74394B
:200C02002CF50874303DF509E43EF50AE43FF50BAC0AAD0B8C82747F5DF58322AE82AF83BE
:0B0C22008E088F09750A00750B002278
:200C2D00120CD0BC0003020E7FEF60FA30D502B2D1E583B4FF03020E95E582B4FF03020EA8
:200C4D0095258340072482400B020E7F2483145003020E95F582EA8DF0A4A8F0EA8EF0A4AA
:200C6D0028F8E435F0F9EB8DF0A428E935F0F9E433CA8FF0A429F9EA35F0FAEBF88EF0A4D6
:200C8D0029F9EA35F0FAE433FBEC8DF0A429F9EA35F0FAE43BFBE88FF0A42AFAEB35F0FB7E
:200CAD00E433CCFD8EF0A42AFAEB35F0FBE43CFCED8FF0A42BFBEC35F0FC20E703120CFE71
:030CCD00020E5EB6
:200CD000AA82AB83A2F73392D1F5826002D2F7ACF0E58124F9F8E6FD08E6FE0886F008E687
:0E0CF000A2F73392D5F5836002D2F7AFF0225F
:06004000E478FFF6D8FD94
:200CFE007804EC7011E58224F8500AF582E4C9CACBFCD8EF22EC7820058220E713D58201F5
:130D1E0022C3E933F9EA33FAEB33FBEC33FCD8EA15822202
:20001E007900E94400601B7A00901EB5780175AF00E493F2A308B8000205AFD9F4DAF27597
:02003E00AFFF12
:0D0D3100E58330E7076382FF6383FFA322A1
:200D3E00AAF0FBE582850EF0A4FCADF0E583850EF0A42DFDE435F0FEE582850FF0A42DFD60
:200D5E00E5F03EFEE433FFEA850EF0A42EFEE5F03FFFE583850FF0A42EFEE5F03FFFE582C8
:200D7E008510F0A42EFEE5F03FFFEB850EF0A42FFFEA850FF0A42FFFE5838510F0A42FFFAE
:0E0D9E00E5828511F0A42F8EF08D838C8222C9
:200DAC00E50E450F60467A01E50E25E0F50EE50F334012F50FE582950EE583950F40030AE4
:200DCC0080E6C3E50F13F50FE50E13F50EC3E582950EF5F0E583950F4005F58385F082C395
:0D0DEC00E50F13F50FE50E13F50EDAE12209
:200046007800E84400600A790175AF00E4F309D8FC7800E84400600C7900900001E4F0A3A9
:04006600D8FCD9FAEF
:200DF900120CD07900E583B58202800D50031214B4E583C39582121621E5D0C465D020E1DE
:200E190017EA2DFAEB3EFBEC3FFC50097401121621EC4480FC020E5EC3EA9DFAEB9EFBEC61
:190E39009FFC500FC3E499F9E49AFAE49BFBE49CFCB2D1120CFE020E5EF2
:0C0E5200E4AC83AB82FAF9748E02161730
:200E5E00B98003EA13B34010EA2401FAE43BFBE43CFC50047C800582BC000EBB000BBA00D8
:200E7E0008E4F5F0F583F58222A2D1E582138CF092F78B838A8222E4F583F58275F080F498
:0F0E9E00A2D11322E4F583F58275F0C0747F2290
:200EAD00C00D85810D1200E6D00D2285825C85835D85F05EE4F559F55AF55B850C5F900E54
:200ECD00AD020FA8C00D85810DE50D24FBFF8F5FE4F559F55AF55BE50D24FBF8865C088677
:0D0EED005D08865E900EAD120FA8D00D229C
:200EFA00AF82C04FC050C051120F078007C04DC04E8F82221581158115810557E4B557026A
:200F1A00055822AF8274302FFF24C6500A74072FFF3000034307208F82020EFAE582FFC466
:200F3A00540FF582C007120F1DD007740F5FF582020F1D85820E85520F8553108554118508
:200F5A005512AA56751320EA2AFAE512235401FF8A064EFAE50F250FF50FE51033F510E5D6
:200F7A001133F511E51233F512C3EA950E4008EAC3950EFA430F01E51314FF8F1370C8853D
:200F9A000F528510538511548512558A562285824D85834E85594F855A50855B51E4F557AF
:200FBA00F558AD5CAE5DAF5E8D828E838FF01215A9FC74012DF55CE43EF55D8F5EECFF708F
:200FDA00030214ADBF250280030214A5C201C202C203C204C205C206C207C208756000758F
:200FFA0061007562FFAA5CAB5DAE5E8A828B838EF01215A9FFA3AA82AB838A5C8B5D8E5E68
:20101A00BF25078F82120EFA8098BF3000402DEF24C6402874FFB56212E56175F00AA42FC7
:20103A00FC24D0F56170C4D20280C0E56275F00AA4FC8F05ED2C24D0F56280AFBF2E0A7420
:20105A00FFB562A775620080A2BF6100400CEF248540075307DFD2008002C200BF200280C5
:20107A006DBF2B028063BF2D028059BF42028063BF43028068BF440302124BBF4603021200
:20109A0061BF4803021005BF490302124BBF4A03021005BF4C028040BF4F03021252BF50D4
:2010BA00030211E0BF5302805ABF5403021005BF5503021257BF580302125CBF5A030210CB
:2010DA0005021265D201021005D203021005D204021005D206021005D20702100530060A96
:2010FA00E55F14F9895F87078011E55F24FEFE8E5F8E018705098706198D078F82120EFAA4
:20111A0002126EE55F24FDFE8E5F8E01870409870509870619198C528D538E548C828D83AE
:20113A008EF01214CEAD82AE8374FFB562028D62200126C3ED95615020E561C39DF561AE41
:20115A00618E041EEC6010758220C006C005120EFAD005D00680EA8E61AE62855282855307
:20117A00838554F01215A9FCFF602F8E041EC374808CF063F08095F050208F82C006C00568
:20119A00120EFAD005D006AA52AB53AC540ABA00010B8A528B538C5480C120010302126E25
:2011BA00C3ED9561400302126EE561C39DF561AE618E041EEC700302126C758220C0061221
:2011DA000EFAD00680EBE55F24FDFC8C5F8C01870209870309870419198A528B538C54ACAB
:2011FA0054BC800040047F438014BC600040047F50800BBC400040047F4980027F588F827F
:20121A00C007120EFA75823A120EFA758230120EFA758278120EFAD007BF4902800BBF5043
:20123A00028006855382120F36855282120F368023D20575600A801C756008801775600A63
:20125A008012756010800DD20880098F82120EFA80028E6130085CE55F24FCFE8E5F8E01FF
:20127A0087020987030987040987061919198A528B538C548E557552AA75531E7554808521
:20129A00526485536585546674012564FAE43565FCAE668A528C538E548564828565838582
:2012BA0066F01215A9FEFF7003020FBC8F82120EFA80CCE5607003020FBC75631930062D61
:2012DA00E55F14F9895F87048C027B007C007E008A528B538C548E55200566AA527B007C32
:2012FA00007E008A528B538C548E558054300721E55F24FCFE8E5F8E018702098703098723
:20131A00040987061919198A528B538C548E558030E55F24FEFE8E5F8E0187040987061987
:20133A00EE3395E0FBFA8C528E538B548A55200510AA52AB537C007E008A528B538C548E3A
:20135A0055300522E55530E71BC3E49552FAE49553FBE49554FCE49555FE8A528B538C54DD
:20137A008E558002C205D209A9637E00755600856082C006C001120F4DD001D00620090BC0
:20139A00E556C4FCE7FB4CF7198002A7560EB209E55245534554455570D289638E05E561A9
:2013BA007003756101200224200121ED04FEAC61C3EE9C5015758220C006C005C004120E0D
:2013DA00FAD004D005D0061C80E68C6130050E75822DC005120EFAD00515618023ED60206A
:2013FA0030030E75822BC005120EFAD0051561800F30040C758220C005120EFAD005156136
:20141A00200126AE618E041EC3ED9C502F3002067B307C0080047B207C008B82C006C0054F
:20143A00120EFAD005D00680DCC3ED95615008E561C39DF561800775610080028E61A9639D
:20145A008D068E051EED6026B20920090A09E7C4540FFD8D5680078705740F5DF5568556BD
:20147A0082C006C001120F1DD001D00680D4200103020FBCAE618E051EED7003020FBC75BD
:1A149A008220C006120EFAD00680EB8F82120EFA020FBC855782855883229D
:0B1EAA003C4E4F20464C4F41543E0080
:1A14B400E582C583F582A2D133A2D592D11392D5ECCFFCEBCEFBEACDFA22C0
:1814CE00AA82AB831215A96003A380F8C3E5829AF582E5839BF5832286
:2014E600120CD030D502B2D1BF0009BC0003020EA2020E95BC0003020E7FE583B4FF0BE537
:2015060082B4FF03020EA2020E7FE582B4FF03020E95C395835007247F400B020E7F248037
:20152600145003020E95F582C3ED9AEE9BEF9C40111582C3EA33F9EB33FAEC33FBE433FCBE
:201546008005E4CCCBCAF9C08275F019C3E99DEA9EEB9FEC9400D5F002802D400EE99DF9E6
:20156600EA9EFAEB9FFBEC9400FCC3B3E833F8E58233F582E58333F583C3E933F9EA33FA46
:20158600EB33FBEC33FC80C4B3E4F938FAE43582FBE43583FCD082500405827C80120CFE98
:0315A600020E76BC
:0D001100758166121664E582600302000E20
:1C15A90020F71430F6148883A88220F507E6A88375830022E280F7E49322E02251
:0B15C500E4AC82FBFAF97486021617F2
:0815D0007F8612166AF58222E3
:2015D800C2D5E58330E70DD2D5E4C39582F582E49583F583E50F30E70BE4C3950EF50EE439
:1615F800950FF50F120DAC30D50BE4C39582F582E49583F583228F
:13160E00FCABF0AA83A982749EC2D1F582120CFE020E5E34
:201621006040F82582500274FFF582E824F8501ECCCBCAF9E4CC24F85014CBCAF9E4CB24D1
:20164100F8500BCAF9E4CA24F8500379002224086010F8C3EC13FCEB13FBEA13FAE913F984
:03166100D8F1229B
:041664007582002269
:201668007F9E12168F30D103020E7FC3EF9582500974FFF5F0F583F5822279001216218925
:07168800828A838BF0EC2243
:12168F00AA82AB83A2F73392D1F5826002D2F7ACF02260
:00000001FF
