:03000000020006F5
:03005F0002000399
:030003000200DD1B
:2000620075B1677E007F01EE24FFFCEF34FFFD8C068D07EC4D70F0E5B130E7FB75B288228F
:20008200759850758920758DDCD28E438E10438780D29943A4012275FFDE75FFAD1200621E
:2000A20012008243E10443E34022AF8210990280FB8F992210980280FBAF998F82C0071202
:2000C20000ACD0078F82222098057582FF800BC2988599821200AC8599822212009975820E
:2000E200201200AC1200EF1200FF80FB2243A7D853A7FC43B00353A6FE43A001221201F1C2
:20010200E5828583F045F070030201BB743CC0E07408C0E07480C0E01202211581158115A2
:20012200811201D9E5828583F045F0602C1201E5E5828583F045F060207456C0E07408C07E
:20014200E07480C0E0120221158115811581C2B3D2B4D2B7D2B60201D81201D9E5828583F0
:20016200F045F0601F747BC0E07408C0E07480C0E0120221158115811581C2B7D2B3D2B41F
:20018200D2B680521201E5E5828583F045F0601F7499C0E07408C0E07480C0E01202211551
:2001A2008115811581C2B6D2B3D2B4D2B78027D2B3D2B4D2B7D2B6801DD2B3C2B4D2B7D2CE
:2001C200B674B7C0E07408C0E07480C0E01202211581158115812220B0059000018003905A
:1B01E20000002220B10590000180039000002220A005900001800390000022B9
:20083C000D20536C69646520737769746368206973206F6E202020200A000D20507573687C
:20085C00627574746F6E203020616E6420312061726520707265737365642020200A000D07
:20087C002050757368627574746F6E203020697320707265737365642020200A000D2050B7
:20089C00757368627574746F6E203120697320707265737365642020200A000D20536C692E
:1508BC00646520737769746368206973206F66662020200A00EB
:06003500E478FFF6D8FD9F
:200013007900E94400601B7A009008DC780175AF00E493F2A308B8000205AFD9F4DAF27591
:02003300AFFF1D
:20003B007800E84400600A790175AF00E4F309D8FC7800E84400600C7900900001E4F0A3B4
:04005B00D8FCD9FAFA
:2001FD00C0098581091200ACD0092285823185833285F033E4F52EF52FF530850834900195
:20021D00FD0202F8C009858109E50924FBFF8F34E4F52EF52FF530E50924FBF88631088687
:0D023D00320886339001FD1202F8D009222C
:20024A00AF82C024C025C0261202578007C022C0238F8222158115811581052CE4B52C0210
:20026A00052D22AF8274302FFF24C6500A74072FFF3000034307208F8202024AE582FFC40A
:20028A00540FF582C00712026DD007740F5FF58202026D85820A85270B85280C85290D85D0
:2002AA002A0EAA2B750F20EA2AFAE50E235401FF8A064EFAE50B250BF50BE50C33F50CE509
:2002CA000D33F50DE50E33F50EC3EA950A4008EAC3950AFA430B01E50F14FF8F0F70C8851E
:2002EA000B27850C28850D29850E2A8A2B22858222858323852E24852F25853026E4F52CD6
:20030A00F52DAD31AE32AF338D828E838FF012081CFC74012DF531E43EF5328F33ECFF7012
:20032A00030207FDBF250280030207F5C201C202C203C204C205C206C207C20875350075F0
:20034A0036007537FFAA31AB32AE338A828B838EF012081CFFA3AA82AB838A318B328E3316
:20036A00BF25078F8212024A8098BF3000402DEF24C6402874FFB53712E53675F00AA42F96
:20038A00FC24D0F53670C4D20280C0E53775F00AA4FC8F05ED2C24D0F53780AFBF2E0A745E
:2003AA00FFB537A775370080A2BF6100400CEF248540075307DFD2008002C200BF200280D8
:2003CA006DBF2B028063BF2D028059BF42028063BF43028068BF440302059BBF4603020587
:2003EA00B1BF4803020355BF490302059BBF4A03020355BF4C028040BF4F030205A2BF5035
:20040A0003020530BF5302805ABF5403020355BF55030205A7BF58030205ACBF5A03020387
:20042A00550205B5D201020355D203020355D204020355D206020355D20702035530060A70
:20044A00E53414F9893487078011E53424FEFE8E348E018705098706198D078F8212024AC8
:20046A000205BEE53424FDFE8E348E01870409870509870619198C278D288E298C828D83FF
:20048A008EF0120804AD82AE8374FFB537028D37200126C3ED95365020E536C39DF536AEAB
:2004AA00368E041EEC6010758220C006C00512024AD005D00680EA8E36AE37852782852857
:2004CA00838529F012081CFCFF602F8E041EC374808CF063F08095F050208F82C006C005EA
:2004EA0012024AD005D006AA27AB28AC290ABA00010B8A278B288C2980C12001030205BE5D
:20050A00C3ED953640030205BEE536C39DF536AE368E041EEC70030205BC758220C0061203
:20052A00024AD00680EBE53424FDFC8C348C01870209870309870419198A278B288C29ACFA
:20054A0029BC800040047F438014BC600040047F50800BBC400040047F4980027F588F8266
:20056A00C00712024A75823A12024A75823012024A75827812024AD007BF4902800BBF50F0
:20058A000280068528821202868527821202868023D20575350A801C753508801775350A71
:2005AA008012753510800DD20880098F8212024A80028E3630085CE53424FCFE8E348E0124
:2005CA0087020987030987040987061919198A278B288C298E2A7527D175280875298085FA
:2005EA00273985283A85293B74012539FAE4353AFCAE3B8A278C288E29853982853A838599
:20060A003BF012081CFEFF700302030C8F8212024A80CCE535700302030C75381530062D70
:20062A00E53414F9893487048C027B007C007E008A278B288C298E2A200566AA277B007C1B
:20064A00007E008A278B288C298E2A8054300721E53424FCFE8E348E0187020987030987E1
:20066A00040987061919198A278B288C298E2A8030E53424FEFE8E348E0187040987061946
:20068A00EE3395E0FBFA8C278E288B298A2A200510AA27AB287C007E008A278B288C298E7A
:2006AA002A300522E52A30E71BC3E49527FAE49528FBE49529FCE4952AFE8A278B288C291D
:2006CA008E2A8002C205D209A9387E00752B00853582C006C00112029DD001D00620090BE6
:2006EA00E52BC4FCE7FB4CF7198002A72B0EB209E52745284529452A70D289388E05E536BE
:20070A007003753601200224200121ED04FEAC36C3EE9C5015758220C006C005C00412022B
:20072A004AD004D005D0061C80E68C3630050E75822DC00512024AD00515368023ED6020E8
:20074A0030030E75822BC00512024AD0051536800F30040C758220C00512024AD0051536C0
:20076A00200126AE368E041EC3ED9C502F3002067B307C0080047B207C008B82C006C00537
:20078A0012024AD005D00680DCC3ED95365008E536C39DF536800775360080028E36A93818
:2007AA008D068E051EED6026B20920090A09E7C4540FFD8D2B80078705740F5DF52B852BFB
:2007CA0082C006C00112026DD001D00680D420010302030CAE368E051EED700302030C75DA
:1A07EA008220C00612024AD00680EB8F8212024A02030C852C82852D8322E4
:0B08D1003C4E4F20464C4F41543E006F
:18080400AA82AB8312081C6003A380F8C3E5829AF582E5839BF58322F6
:0D00060075813B120838E58260030200039B
:1C081C0020F71430F6148883A88220F507E6A88375830022E280F7E49322E022EB
:0408380075820022A3
:00000001FF
