:040000000200513277
:01000B0032C2
:0100130032BA
:01001B0032B2
:0100230032AA
:01002B0032A2
:01003300329A
:01003B003292
:01004300328A
:03004B000201802F
:0E00AA007508CD75090AE4F50EF50F02004E3B
:03004E0002013379
:2000B80075B1677E007F01EE24FFFCEF34FFFD8C068D07EC4D70F0E5B130E7FB75B2882239
:2000D800759850758920758DDCD28E438E10438780D29943A4012275FFDE75FFAD1200B872
:2000F8001200D843E10443E34022AF8210990280FB8F992210980280FBAF998F82C0071256
:200118000102D0078F82222098057582FF800BC298859982120102859982221200EF7582B3
:200138002012010212016912016D120171744AC0E07409C0E07480C0E012032F1581158173
:20015800158185080E85090F12023812018F80FB2275A50F2275E12722D2AF43E60875D944
:200178008175DAC243D8402210DF02800675E90275F90053D8403212010CAF82BF721F7462
:200198000A250EFDE4350FFEC3E50A9DE50B9E402F740A250EF50EE4350FF50F8022BF6CEE
:2001B8001FE50E24F6FEE50F34FFFFC3EE950CEF950D400CE50E24F6F50EE50F34FFF50F6D
:2001D80074FFC3950EF5EA74FF950FF5FAC00EC00F7471C0E07409C0E07480C0E012032F32
:2001F800E58124FBF581227F00BF6B02803112010CAF82BF720B740A250EF50EE4350FF511
:200218000FBF6C0CE50E24F6F50EE50F34FFF50F74FFC3950EF5EA74FF950FF5FA80CA221B
:20023800750ECD750F0A75EA3275FAF57481C0E07409C0E07480C0E012032F158115811508
:20025800811201FF850E08850F09C008C00974D3C0E07409C0E07480C0E012032FE58124C4
:20027800FBF58174EDC0E07409C0E07480C0E012032F1581158115811201FF850E0C850FF8
:200298000DC00CC00D746AC0E0740AC0E07480C0E012032FE58124FBF5817482C0E0740A1D
:2002B800C0E07480C0E012032F1581158115811201FF850E0A850F0BC00AC00B7401C0E0F4
:2002D800740BC0E07480C0E012032FE58124FBF581C00CC00DC00AC00BC008C009741AC007
:1302F800E0740BC0E07480C0E012032FE58124F7F5812203
:20094A00456D62656464656420436F6E74726F6C205374656572696E672043616C696272B4
:20096A006174696F6E0A000D0A534552564F5F50573A2025750A000D0A506C65617365200D
:20098A0063656E74657220746865206361722E200D0A557365206C20616E64207220746F0F
:2009AA00207475726E206C65667420616E642072696768742E205072657373206B20776803
:2009CA00656E20646F6E652E000D0A43656E7465722070756C7365207769647468203D20C8
:2009EA002575000D0A506C65617365207475726E207468652063617220616C6C2074686588
:200A0A002077617920746F20746865206C65667420776974686F75742073747261696E69DE
:200A2A006E672069742E200D0A557365206C20616E64207220746F207475726E206C656694
:200A4A007420616E642072696768742E205072657373206B207768656E20646F6E652E00DB
:200A6A000D0A4C6566742070756C7365207769647468203D202575000D0A31506C656173ED
:200A8A0065207475726E207468652063617220616C6C207468652077617920746F2074681D
:200AAA006520726967687420776974686F75742073747261696E696E672069742E200D0A04
:200ACA00557365206C20616E64207220746F207475726E206C65667420616E642072696702
:200AEA0068742E205072657373206B207768656E20646F6E652E000D0A52696768742070BF
:200B0A00756C7365207769647468203D202575000D0A0A50575F43454E544552203D202531
:200B2A0075200D0A50575F5249474854203D202575200D0A50575F4C454654203D202575E5
:040B4A00200D0A0070
:06008000E478FFF6D8FD54
:20005E007900E94400601B7A00900B59780175AF00E493F2A308B8000205AFD9F4DAF275C6
:02007E00AFFFD2
:200086007800E84400600A790175AF00E4F309D8FC7800E84400600C7900900001E4F0A369
:0400A600D8FCD9FAAF
:20030B00C013858113120102D0132285823185833285F033E4F52EF52FF530851234900304
:20032B000B020406C013858113E51324FBFF8F34E4F52EF52FF530E51324FBF88631088632
:0D034B003208863390030B120406D01322F3
:20035800AF82C024C025C0261203658007C022C0238F8222158115811581052CE4B52C02F2
:20037800052D22AF8274302FFF24C6500A74072FFF3000034307208F82020358E582FFC4EC
:20039800540FF582C00712037BD007740F5FF58202037B858214852715852816852917857B
:2003B8002A18AA2B751920EA2AFAE518235401FF8A064EFAE5152515F515E51633F516E5AA
:2003D8001733F517E51833F518C3EA95144008EAC39514FA431501E51914FF8F1970C885B5
:2003F800152785162885172985182A8A2B22858222858323852E24852F25853026E4F52C9F
:20041800F52DAD31AE32AF338D828E838FF012092AFC74012DF531E43EF5328F33ECFF70F4
:200438000302090BBF25028003020903C201C202C203C204C205C206C207C20875350075C1
:2004580036007537FFAA31AB32AE338A828B838EF012092AFFA3AA82AB838A318B328E33F8
:20047800BF25078F821203588098BF3000402DEF24C6402874FFB53712E53675F00AA42F78
:20049800FC24D0F53670C4D20280C0E53775F00AA4FC8F05ED2C24D0F53780AFBF2E0A744F
:2004B800FFB537A775370080A2BF6100400CEF248540075307DFD2008002C200BF200280C9
:2004D8006DBF2B028063BF2D028059BF42028063BF43028068BF44030206A9BF4603020668
:2004F800BFBF4803020463BF49030206A9BF4A03020463BF4C028040BF4F030206B0BF50DC
:200518000302063EBF5302805ABF5403020463BF55030206B5BF58030206BABF5A0302043B
:20053800630206C3D201020463D203020463D204020463D206020463D20702046330060AF9
:20055800E53414F9893487078011E53424FEFE8E348E018705098706198D078F82120358AA
:200578000206CCE53424FDFE8E348E01870409870509870619198C278D288E298C828D83E1
:200598008EF0120912AD82AE8374FFB537028D37200126C3ED95365020E536C39DF536AE8D
:2005B800368E041EEC6010758220C006C005120358D005D00680EA8E36AE37852782852839
:2005D800838529F012092AFCFF602F8E041EC374808CF063F08095F050208F82C006C005CC
:2005F800120358D005D006AA27AB28AC290ABA00010B8A278B288C2980C12001030206CC30
:20061800C3ED953640030206CCE536C39DF536AE368E041EEC70030206CA758220C00612D6
:200638000358D00680EBE53424FDFC8C348C01870209870309870419198A278B288C29ACDC
:2006580029BC800040047F438014BC600040047F50800BBC400040047F4980027F588F8257
:20067800C00712035875823A120358758230120358758278120358D007BF4902800BBF50A5
:200698000280068528821203948527821203948023D20575350A801C753508801775350A44
:2006B8008012753510800DD20880098F8212035880028E3630085CE53424FCFE8E348E0106
:2006D80087020987030987040987061919198A278B288C298E2A75274E75280B752980856B
:2006F800273985283A85293B74012539FAE4353AFCAE3B8A278C288E29853982853A83858A
:200718003BF012092AFEFF700302041A8F8212035880CCE535700302041A75381F30062D1B
:20073800E53414F9893487048C027B007C007E008A278B288C298E2A200566AA277B007C0C
:20075800007E008A278B288C298E2A8054300721E53424FCFE8E348E0187020987030987D2
:20077800040987061919198A278B288C298E2A8030E53424FEFE8E348E0187040987061937
:20079800EE3395E0FBFA8C278E288B298A2A200510AA27AB287C007E008A278B288C298E6B
:2007B8002A300522E52A30E71BC3E49527FAE49528FBE49529FCE4952AFE8A278B288C290E
:2007D8008E2A8002C205D209A9387E00752B00853582C006C0011203ABD001D00620090BC8
:2007F800E52BC4FCE7FB4CF7198002A72B0EB209E52745284529452A70D289388E05E536AF
:200818007003753601200224200121ED04FEAC36C3EE9C5015758220C006C005C00412031B
:2008380058D004D005D0061C80E68C3630050E75822DC005120358D00515368023ED6020BC
:2008580030030E75822BC005120358D0051536800F30040C758220C005120358D005153693
:20087800200126AE368E041EC3ED9C502F3002067B307C0080047B207C008B82C006C00528
:20089800120358D005D00680DCC3ED95365008E536C39DF536800775360080028E36A938FA
:2008B8008D068E051EED6026B20920090A09E7C4540FFD8D2B80078705740F5DF52B852BEC
:2008D80082C006C00112037BD001D00680D420010302041AAE368E051EED700302041A759E
:1A08F8008220C006120358D00680EB8F8212035802041A852C82852D8322A8
:0B0B4E003C4E4F20464C4F41543E00EF
:18091200AA82AB8312092A6003A380F8C3E5829AF582E5839BF58322D8
:0D00510075813B120946E582600302004EF6
:1C092A0020F71430F6148883A88220F507E6A88375830022E280F7E49322E022DC
:040946007582002294
:00000001FF
