:040000000200513277
:01000B0032C2
:0100130032BA
:01001B0032B2
:0100230032AA
:01002B0032A2
:01003300329A
:01003B003292
:01004300328A
:03004B0002017A35
:0E00AA007508CD75090AE4F50EF50F02004E3B
:03004E0002013379
:2000B80075B1677E007F01EE24FFFCEF34FFFD8C068D07EC4D70F0E5B130E7FB75B2882239
:2000D800759850758920758DDCD28E438E10438780D29943A4012275FFDE75FFAD1200B872
:2000F8001200D843E10443E34022AF8210990280FB8F992210980280FBAF998F82C0071256
:200118000102D0078F82222098057582FF800BC298859982120102859982221200EF7582B3
:200138002012010212016312016712016B7444C0E07409C0E07480C0E01203291581158191
:20015800158112023212018980FB2275A50F2275E12722D2AF43E60875D98175DAC243D8DB
:20017800402210DF02800675E90075F97053D8403212010CAF82BF721F740A250EFDE4354E
:200198000FFEC3E50A9DE50B9E402F740A250EF50EE4350FF50F8022BF6C1FE50E24F6FE17
:2001B800E50F34FFFFC3EE950CEF950D400CE50E24F6F50EE50F34FFF50F74FFC3950EF5C9
:2001D800EA74FF950FF5FAC00EC00F746BC0E07409C0E07480C0E0120329E58124FBF58111
:2001F800227F00BF6B02803112010CAF82BF720B740A250EF50EE4350FF50FBF6C0CE50ED3
:2002180024F6F50EE50F34FFF50F74FFC3950EF5EA74FF950FF5FA80CA22750ECD750F0A76
:2002380075EA3275FAF5747BC0E07409C0E07480C0E01203291581158115811201F9850ED2
:2002580008850F09C008C00974CDC0E07409C0E07480C0E0120329E58124FBF58174E7C06A
:20027800E07409C0E07480C0E01203291581158115811201F9850E0C850F0DC00CC00D747C
:2002980064C0E0740AC0E07480C0E0120329E58124FBF581747CC0E0740AC0E07480C0E015
:2002B8001203291581158115811201F9850E0A850F0BC00AC00B74FAC0E0740AC0E0748029
:2002D800C0E0120329E58124FBF581C00CC00DC00AC00BC008C0097413C0E0740BC0E074B4
:0D02F80080C0E0120329E58124F7F5812282
:20094400456D62656464656420436F6E74726F6C205374656572696E672043616C696272BA
:200964006174696F6E0A000D0A534552564F5F50573A2025750A000D0A506C656173652013
:2009840063656E74657220746865206361722E200D0A557365206C20616E64207220746F15
:2009A400207475726E206C65667420616E642072696768742E205072657373206B20776809
:2009C400656E20646F6E652E000D0A43656E7465722070756C7365207769647468203D20CE
:2009E4002575000D0A506C65617365207475726E207468652063617220616C6C207468658E
:200A04002077617920746F20746865206C65667420776974686F75742073747261696E69E4
:200A24006E672069742E200D0A557365206C20616E64207220746F207475726E206C65669A
:200A44007420616E642072696768742E205072657373206B207768656E20646F6E652E00E1
:200A64000D0A4C6566742070756C7365207769647468203D202575000D0A506C65617365BF
:200A8400207475726E207468652063617220616C6C207468652077617920746F2074686523
:200AA40020726967687420776974686F75742073747261696E696E672069742E200D0A551A
:200AC4007365206C20616E64207220746F207475726E206C65667420616E642072696768F5
:200AE400742E205072657373206B207768656E20646F6E652E000D0A5269676874207075B8
:200B04006C7365207769647468203D202575000D0A0A50575F43454E544552203D20257537
:200B2400200D0A50575F5249474854203D202575200D0A50575F4C454654203D2025752040
:030B44000D0A0097
:06008000E478FFF6D8FD54
:20005E007900E94400601B7A00900B52780175AF00E493F2A308B8000205AFD9F4DAF275CD
:02007E00AFFFD2
:200086007800E84400600A790175AF00E4F309D8FC7800E84400600C7900900001E4F0A369
:0400A600D8FCD9FAAF
:20030500C013858113120102D0132285823185833285F033E4F52EF52FF53085123490030A
:2003250005020400C013858113E51324FBFF8F34E4F52EF52FF530E51324FBF88631088644
:0D03450032088633900305120400D0132205
:20035200AF82C024C025C02612035F8007C022C0238F8222158115811581052CE4B52C02FE
:20037200052D22AF8274302FFF24C6500A74072FFF3000034307208F82020352E582FFC4F8
:20039200540FF582C007120375D007740F5FF582020375858214852715852816852917858D
:2003B2002A18AA2B751920EA2AFAE518235401FF8A064EFAE5152515F515E51633F516E5B0
:2003D2001733F517E51833F518C3EA95144008EAC39514FA431501E51914FF8F1970C885BB
:2003F200152785162885172985182A8A2B22858222858323852E24852F25853026E4F52CA5
:20041200F52DAD31AE32AF338D828E838FF0120924FC74012DF531E43EF5328F33ECFF7000
:2004320003020905BF250280030208FDC201C202C203C204C205C206C207C20875350075D4
:2004520036007537FFAA31AB32AE338A828B838EF0120924FFA3AA82AB838A318B328E3304
:20047200BF25078F821203528098BF3000402DEF24C6402874FFB53712E53675F00AA42F84
:20049200FC24D0F53670C4D20280C0E53775F00AA4FC8F05ED2C24D0F53780AFBF2E0A7455
:2004B200FFB537A775370080A2BF6100400CEF248540075307DFD2008002C200BF200280CF
:2004D2006DBF2B028063BF2D028059BF42028063BF43028068BF44030206A3BF4603020674
:2004F200B9BF480302045DBF49030206A3BF4A0302045DBF4C028040BF4F030206AABF5000
:2005120003020638BF5302805ABF540302045DBF55030206AFBF58030206B4BF5A03020459
:200532005D0206BDD20102045DD20302045DD20402045DD20602045DD20702045D30060A29
:20055200E53414F9893487078011E53424FEFE8E348E018705098706198D078F82120352B6
:200572000206C6E53424FDFE8E348E01870409870509870619198C278D288E298C828D83ED
:200592008EF012090CAD82AE8374FFB537028D37200126C3ED95365020E536C39DF536AE99
:2005B200368E041EEC6010758220C006C005120352D005D00680EA8E36AE37852782852845
:2005D200838529F0120924FCFF602F8E041EC374808CF063F08095F050208F82C006C005D8
:2005F200120352D005D006AA27AB28AC290ABA00010B8A278B288C2980C12001030206C642
:20061200C3ED953640030206C6E536C39DF536AE368E041EEC70030206C4758220C00612E8
:200632000352D00680EBE53424FDFC8C348C01870209870309870419198A278B288C29ACE8
:2006520029BC800040047F438014BC600040047F50800BBC400040047F4980027F588F825D
:20067200C00712035275823A120352758230120352758278120352D007BF4902800BBF50C3
:2006920002800685288212038E85278212038E8023D20575350A801C753508801775350A56
:2006B2008012753510800DD20880098F8212035280028E3630085CE53424FCFE8E348E0112
:2006D20087020987030987040987061919198A278B288C298E2A75274775280B7529808578
:2006F200273985283A85293B74012539FAE4353AFCAE3B8A278C288E29853982853A838590
:200712003BF0120924FEFF70030204148F8212035280CCE535700302041475381F30062D39
:20073200E53414F9893487048C027B007C007E008A278B288C298E2A200566AA277B007C12
:20075200007E008A278B288C298E2A8054300721E53424FCFE8E348E0187020987030987D8
:20077200040987061919198A278B288C298E2A8030E53424FEFE8E348E018704098706193D
:20079200EE3395E0FBFA8C278E288B298A2A200510AA27AB287C007E008A278B288C298E71
:2007B2002A300522E52A30E71BC3E49527FAE49528FBE49529FCE4952AFE8A278B288C2914
:2007D2008E2A8002C205D209A9387E00752B00853582C006C0011203A5D001D00620090BD4
:2007F200E52BC4FCE7FB4CF7198002A72B0EB209E52745284529452A70D289388E05E536B5
:200812007003753601200224200121ED04FEAC36C3EE9C5015758220C006C005C004120321
:2008320052D004D005D0061C80E68C3630050E75822DC005120352D00515368023ED6020CE
:2008520030030E75822BC005120352D0051536800F30040C758220C005120352D0051536A5
:20087200200126AE368E041EC3ED9C502F3002067B307C0080047B207C008B82C006C0052E
:20089200120352D005D00680DCC3ED95365008E536C39DF536800775360080028E36A93806
:2008B2008D068E051EED6026B20920090A09E7C4540FFD8D2B80078705740F5DF52B852BF2
:2008D20082C006C001120375D001D00680D4200103020414AE368E051EED700302041475B6
:1A08F2008220C006120352D00680EB8F82120352020414852C82852D8322C0
:0B0B47003C4E4F20464C4F41543E00F6
:18090C00AA82AB831209246003A380F8C3E5829AF582E5839BF58322E4
:0D00510075813B120940E582600302004EFC
:1C09240020F71430F6148883A88220F507E6A88375830022E280F7E49322E022E2
:04094000758200229A
:00000001FF
