:040000000200513277
:01000B0032C2
:0100130032BA
:01001B0032B2
:0100230032AA
:01002B0032A2
:01003300329A
:01003B003292
:01004300328A
:03004B000201634C
:0800AA00E4F50EF50F02004E13
:03004E0002012D7F
:2000B20075B1677E007F01EE24FFFCEF34FFFD8C068D07EC4D70F0E5B130E7FB75B288223F
:2000D200759850758920758DDCD28E438E10438780D29943A4012275FFDE75FFAD1200B27E
:2000F2001200D243E10443E34022AF8210990280FB8F992210980280FBAF998F82C0071262
:2001120000FCD0078F82222098057582FF800BC2988599821200FC859982221200E97582CD
:20013200201200FC12016012016112016274CDC0E07407C0E07480C0E01201B215811581A2
:20015200158185080E85090F12016480FB2222222232120106C00EC00F74F6C0E07407C018
:1C017200E07480C0E01201B2E58124FBF58174FFC3950EF5EB74FF950FF5FB225B
:2007CD00456D62656464656420436F6E74726F6C2050756C736577696474682043616C691F
:1107ED0062726174696F6E0A0050573A2025750A005D
:06008000E478FFF6D8FD54
:20005E007900E94400601B7A00900809780175AF00E493F2A308B8000205AFD9F4DAF27519
:02007E00AFFFD2
:200086007800E84400600A790175AF00E4F309D8FC7800E84400600C7900900001E4F0A369
:0400A600D8FCD9FAAF
:20018E00C0138581131200FCD0132285823185833285F033E4F52EF52FF53085123490018C
:2001AE008E020289C013858113E51324FBFF8F34E4F52EF52FF530E51324FBF886310886AD
:0D01CE003208863390018E120289D0132270
:2001DB00AF82C024C025C0261201E88007C022C0238F8222158115811581052CE4B52C02F0
:2001FB00052D22AF8274302FFF24C6500A74072FFF3000034307208F820201DBE582FFC4EA
:20021B00540FF582C0071201FED007740F5FF5820201FE85821485271585281685291785F7
:20023B002A18AA2B751920EA2AFAE518235401FF8A064EFAE5152515F515E51633F516E528
:20025B001733F517E51833F518C3EA95144008EAC39514FA431501E51914FF8F1970C88533
:20027B00152785162885172985182A8A2B22858222858323852E24852F25853026E4F52C1D
:20029B00F52DAD31AE32AF338D828E838FF01207ADFC74012DF531E43EF5328F33ECFF70F2
:2002BB000302078EBF25028003020786C201C202C203C204C205C206C207C208753500753E
:2002DB0036007537FFAA31AB32AE338A828B838EF01207ADFFA3AA82AB838A318B328E33F6
:2002FB00BF25078F821201DB8098BF3000402DEF24C6402874FFB53712E53675F00AA42F76
:20031B00FC24D0F53670C4D20280C0E53775F00AA4FC8F05ED2C24D0F53780AFBF2E0A74CD
:20033B00FFB537A775370080A2BF6100400CEF248540075307DFD2008002C200BF20028047
:20035B006DBF2B028063BF2D028059BF42028063BF43028068BF440302052CBF4603020565
:20037B0042BF48030202E6BF490302052CBF4A030202E6BF4C028040BF4F03020533BF50D1
:20039B00030204C1BF5302805ABF54030202E6BF5503020538BF580302053DBF5A030202B6
:2003BB00E6020546D2010202E6D2030202E6D2040202E6D2060202E6D2070202E630060AEE
:2003DB00E53414F9893487078011E53424FEFE8E348E018705098706198D078F821201DBA8
:2003FB0002054FE53424FDFE8E348E01870409870509870619198C278D288E298C828D83DE
:20041B008EF0120795AD82AE8374FFB537028D37200126C3ED95365020E536C39DF536AE8A
:20043B00368E041EEC6010758220C006C0051201DBD005D00680EA8E36AE37852782852836
:20045B00838529F01207ADFCFF602F8E041EC374808CF063F08095F050208F82C006C005C9
:20047B001201DBD005D006AA27AB28AC290ABA00010B8A278B288C2980C120010302054FAB
:20049B00C3ED9536400302054FE536C39DF536AE368E041EEC700302054D758220C0061251
:2004BB0001DBD00680EBE53424FDFC8C348C01870209870309870419198A278B288C29ACDA
:2004DB0029BC800040047F438014BC600040047F50800BBC400040047F4980027F588F82D6
:2004FB00C0071201DB75823A1201DB7582301201DB7582781201DBD007BF4902800BBF5020
:20051B000280068528821202178527821202178023D20575350A801C753508801775350ABE
:20053B008012753510800DD20880098F821201DB80028E3630085CE53424FCFE8E348E0103
:20055B0087020987030987040987061919198A278B288C298E2A7527FE752807752980853D
:20057B00273985283A85293B74012539FAE4353AFCAE3B8A278C288E29853982853A838508
:20059B003BF01207ADFEFF700302029D8F821201DB80CCE535700302029D75381F30062D96
:2005BB00E53414F9893487048C027B007C007E008A278B288C298E2A200566AA277B007C8B
:2005DB00007E008A278B288C298E2A8054300721E53424FCFE8E348E018702098703098751
:2005FB00040987061919198A278B288C298E2A8030E53424FEFE8E348E01870409870619B6
:20061B00EE3395E0FBFA8C278E288B298A2A200510AA27AB287C007E008A278B288C298EE9
:20063B002A300522E52A30E71BC3E49527FAE49528FBE49529FCE4952AFE8A278B288C298C
:20065B008E2A8002C205D209A9387E00752B00853582C006C00112022ED001D00620090BC4
:20067B00E52BC4FCE7FB4CF7198002A72B0EB209E52745284529452A70D289388E05E5362D
:20069B007003753601200224200121ED04FEAC36C3EE9C5015758220C006C005C00412019C
:2006BB00DBD004D005D0061C80E68C3630050E75822DC0051201DBD00515368023ED602037
:2006DB0030030E75822BC0051201DBD0051536800F30040C758220C0051201DBD005153610
:2006FB00200126AE368E041EC3ED9C502F3002067B307C0080047B207C008B82C006C005A7
:20071B001201DBD005D00680DCC3ED95365008E536C39DF536800775360080028E36A938F7
:20073B008D068E051EED6026B20920090A09E7C4540FFD8D2B80078705740F5DF52B852B6A
:20075B0082C006C0011201FED001D00680D420010302029DAE368E051EED700302029D7599
:1A077B008220C0061201DBD00680EB8F821201DB02029D852C82852D8322A3
:0B07FE003C4E4F20464C4F41543E0043
:18079500AA82AB831207AD6003A380F8C3E5829AF582E5839BF58322D6
:0D00510075813B1207C9E582600302004E75
:1C07AD0020F71430F6148883A88220F507E6A88375830022E280F7E49322E0225B
:0407C9007582002213
:00000001FF
