:040000000200513277
:01000B0032C2
:0100130032BA
:01001B0032B2
:0100230032AA
:01002B0032A2
:01003300329A
:01003B003292
:01004300328A
:03004B0002017A35
:0800AA00E4F50EF50F02004E13
:03004E0002012D7F
:2000B20075B1677E007F01EE24FFFCEF34FFFD8C068D07EC4D70F0E5B130E7FB75B288223F
:2000D200759850758920758DDCD28E438E10438780D29943A4012275FFDE75FFAD1200B27E
:2000F2001200D243E10443E34022AF8210990280FB8F992210980280FBAF998F82C0071262
:2001120000FCD0078F82222098057582FF800BC2988599821200FC859982221200E97582CD
:20013200201200FC12016312016712016B74ECC0E07408C0E07480C0E01202D11581158150
:20015200158185080E85090F12022512018980FB2275A50F2275E12722D2AF43E60875D963
:200172008175DAC243D8402210DF02800675E90075F97053D84032120106AF82BF7218C3B8
:20019200E50E950AE50F950B5027740A250EF50EE4350FF50F801ABF6C17C3E50C950EE5B8
:2001B2000D950F500CE50E24F6F50EE50F34FFF50F74FFC3950EF5EA74FF950FF5FAC00E59
:2001D200C00F7413C0E07409C0E07480C0E01202D1E58124FBF581227F00BF6B02803312F4
:2001F2000106AF82BF720D740A250EF50EE4350FF50F800FBF6C0CE50E24F6F50EE50F3499
:20021200FFF50F74FFC3950EF5EA74FF950FF5FA80C822750ECD750F0A75EA3275FAF5745A
:2002320021C0E07409C0E07480C0E01202D11581158115811201EA850E08850F097474C0B6
:20025200E07409C0E07480C0E01202D11581158115811201EA850E0A850F0B74F3C0E074A0
:2002720009C0E07480C0E01202D11581158115811201EA850E0C850F0DC00CC00DC00AC028
:1B0292000BC008C0097471C0E0740AC0E07480C0E01202D1E58124F7F5812280
:2008EC00456D62656464656420436F6E74726F6C205374656572696E672043616C69627213
:20090C006174696F6E0A00534552564F5F50573A2025750A000D0A20506C656173652063FF
:20092C00656E74657220746865206361722E200D0A557365206C20616E64207220746F20B0
:20094C007475726E206C65667420616E642072696768742E205072657373206B207768651C
:20096C006E20646F6E652E000D0A20506C65617365207475726E2074686520636172206157
:20098C006C6C207468652077617920746F2074686520726967687420776974686F757420AB
:2009AC0073747261696E696E672069742E200D0A557365206C20616E64207220746F2074C5
:2009CC0075726E206C65667420616E642072696768742E205072657373206B207768656EA2
:2009EC0020646F6E652E000D0A20506C65617365207475726E207468652063617220616CD9
:200A0C006C207468652077617920746F20746865206C65667420776974686F757420737422
:200A2C007261696E696E672069742E200D0A557365206C20616E64207220746F2074757244
:200A4C006E206C65667420616E642072696768742E205072657373206B207768656E206484
:200A6C006F6E652E000A50575F43454E544552203D202575200D0A50575F52494748542037
:170A8C003D202575200D0A50575F4C454654203D202575200D0A00A6
:06008000E478FFF6D8FD54
:20005E007900E94400601B7A00900AAE780175AF00E493F2A308B8000205AFD9F4DAF27572
:02007E00AFFFD2
:200086007800E84400600A790175AF00E4F309D8FC7800E84400600C7900900001E4F0A369
:0400A600D8FCD9FAAF
:2002AD00C0138581131200FCD0132285823185833285F033E4F52EF52FF53085123490026B
:2002CD00AD0203A8C013858113E51324FBFF8F34E4F52EF52FF530E51324FBF8863108864E
:0D02ED00320886339002AD1203A8D0132210
:2002FA00AF82C024C025C0261203078007C022C0238F8222158115811581052CE4B52C02AF
:20031A00052D22AF8274302FFF24C6500A74072FFF3000034307208F820202FAE582FFC4A9
:20033A00540FF582C00712031DD007740F5FF58202031D8582148527158528168529178595
:20035A002A18AA2B751920EA2AFAE518235401FF8A064EFAE5152515F515E51633F516E508
:20037A001733F517E51833F518C3EA95144008EAC39514FA431501E51914FF8F1970C88513
:20039A00152785162885172985182A8A2B22858222858323852E24852F25853026E4F52CFD
:2003BA00F52DAD31AE32AF338D828E838FF01208CCFC74012DF531E43EF5328F33ECFF70B2
:2003DA00030208ADBF250280030208A5C201C202C203C204C205C206C207C20875350075DE
:2003FA0036007537FFAA31AB32AE338A828B838EF01208CCFFA3AA82AB838A318B328E33B6
:20041A00BF25078F821202FA8098BF3000402DEF24C6402874FFB53712E53675F00AA42F35
:20043A00FC24D0F53670C4D20280C0E53775F00AA4FC8F05ED2C24D0F53780AFBF2E0A74AD
:20045A00FFB537A775370080A2BF6100400CEF248540075307DFD2008002C200BF20028027
:20047A006DBF2B028063BF2D028059BF42028063BF43028068BF440302064BBF4603020624
:20049A0061BF4803020405BF490302064BBF4A03020405BF4C028040BF4F03020652BF5010
:2004BA00030205E0BF5302805ABF5403020405BF5503020657BF580302065CBF5A03020413
:2004DA0005020665D201020405D203020405D204020405D206020405D20702040530060AEA
:2004FA00E53414F9893487078011E53424FEFE8E348E018705098706198D078F821202FA68
:20051A0002066EE53424FDFE8E348E01870409870509870619198C278D288E298C828D839D
:20053A008EF01208B4AD82AE8374FFB537028D37200126C3ED95365020E536C39DF536AE4A
:20055A00368E041EEC6010758220C006C0051202FAD005D00680EA8E36AE378527828528F6
:20057A00838529F01208CCFCFF602F8E041EC374808CF063F08095F050208F82C006C00589
:20059A001202FAD005D006AA27AB28AC290ABA00010B8A278B288C2980C120010302066E4B
:2005BA00C3ED9536400302066EE536C39DF536AE368E041EEC700302066C758220C00612F1
:2005DA0002FAD00680EBE53424FDFC8C348C01870209870309870419198A278B288C29AC9A
:2005FA0029BC800040047F438014BC600040047F50800BBC400040047F4980027F588F82B6
:20061A00C0071202FA75823A1202FA7582301202FA7582781202FAD007BF4902800BBF507F
:20063A000280068528821203368527821203368023D20575350A801C753508801775350A5E
:20065A008012753510800DD20880098F821202FA80028E3630085CE53424FCFE8E348E01C3
:20067A0087020987030987040987061919198A278B288C298E2A7527A375280A7529808575
:20069A00273985283A85293B74012539FAE4353AFCAE3B8A278C288E29853982853A8385E8
:2006BA003BF01208CCFEFF70030203BC8F821202FA80CCE53570030203BC75381F30062DF6
:2006DA00E53414F9893487048C027B007C007E008A278B288C298E2A200566AA277B007C6B
:2006FA00007E008A278B288C298E2A8054300721E53424FCFE8E348E018702098703098731
:20071A00040987061919198A278B288C298E2A8030E53424FEFE8E348E0187040987061995
:20073A00EE3395E0FBFA8C278E288B298A2A200510AA27AB287C007E008A278B288C298EC9
:20075A002A300522E52A30E71BC3E49527FAE49528FBE49529FCE4952AFE8A278B288C296C
:20077A008E2A8002C205D209A9387E00752B00853582C006C00112034DD001D00620090B84
:20079A00E52BC4FCE7FB4CF7198002A72B0EB209E52745284529452A70D289388E05E5360D
:2007BA007003753601200224200121ED04FEAC36C3EE9C5015758220C006C005C00412027B
:2007DA00FAD004D005D0061C80E68C3630050E75822DC0051202FAD00515368023ED6020D8
:2007FA0030030E75822BC0051202FAD0051536800F30040C758220C0051202FAD0051536B0
:20081A00200126AE368E041EC3ED9C502F3002067B307C0080047B207C008B82C006C00586
:20083A001202FAD005D00680DCC3ED95365008E536C39DF536800775360080028E36A938B7
:20085A008D068E051EED6026B20920090A09E7C4540FFD8D2B80078705740F5DF52B852B4A
:20087A0082C006C00112031DD001D00680D42001030203BCAE368E051EED70030203BC7518
:1A089A008220C0061202FAD00680EB8F821202FA0203BC852C82852D832223
:0B0AA3003C4E4F20464C4F41543E009B
:1808B400AA82AB831208CC6003A380F8C3E5829AF582E5839BF5832296
:0D00510075813B1208E8E582600302004E55
:1C08CC0020F71430F6148883A88220F507E6A88375830022E280F7E49322E0223B
:0408E80075820022F3
:00000001FF
