:040000000200513277
:01000B0032C2
:0100130032BA
:01001B0032B2
:0100230032AA
:01002B0032A2
:01003300329A
:01003B003292
:01004300328A
:03004B000206DAD0
:2000AA0075367D75370A7538D5753907753A85753B0CE4F53CF53DF53EF53FF540F541F523
:0C00CA0042F54375448C75450A02004E57
:03004E000205DCCC
:2000D60075B1677E007F01EE24FFFCEF34FFFD8C068D07EC4D70F0E5B130E7FB75B288221B
:2000F600759850758920758DDCD28E438E10438780D29943A4012275FFDE75FFAD1200D636
:200116001200F643E10443E34022AF8210990280FB8F992210980280FBAF998F82C0071219
:200136000120D0078F82222098057582FF800BC29885998212012085998222C00F85810F6D
:20015600E50F24FBF886820886830886F0121261E5828583F045F070028062E50F24FBFF68
:200176008F0BE50F24FBF8860808860908860A90000175F000120A9C90000175F00012123F
:2001960061AE827F00C3EF9E501FEF2401F582E43400F583E0FDBD0A0DEF2401F582E4340B
:2001B60000F583740DF00F80DC752D01752E00752F00752C008E307582C6120462D00F2256
:2001D60075270074C0252740177532277533007534407531007535017582C61204DC80E3D4
:2001F60075280C752D28752E00752F40752C007530017582C61204622275322A7533007563
:2002160034407531017535027582C61204DC74FFB52A05758200805F7F008F068EF005F09E
:200236007C017D008006EC2CFCED33FDD5F0F7AA2A7B00EA5204EB5205EC4D600774312FF6
:20025600F58280330E8E07BE080040D0E52B30E0057582398021E52B30E10575822A801711
:20027600E52B30E205758230800DE52B30E30575822380037582FF22AF82E4FDFEEF701D24
:20029600C006C0057455C0E07413C0E07480C0E0120151158115811581D005D006C006C042
:2002B600057408C0E0E4C0E07408C0E0E4C0E07408C0E0E4C0E07408C0E0E4C0E07408C067
:2002D600E0E4C0E0746BC0E07413C0E07480C0E0120151E58124F3F58190A12075F007E472
:2002F6001203FDD005D0067F00C007C006C00512020FAC82D005D006D0078C03BCFF0280BB
:2003160003BB2A17902710E4F5F0C007C006C0051203FDD005D006D00780CEBB232AC00636
:20033600C00512020FAC82D005D006BC2313902710E4F5F0C006C0051203FDD005D006809C
:20035600DD8D828E830203FC8B027C00C007C006C005C004C003C002C002C004747BC0E0D0
:200376007413C0E07480C0E0120151E58124FBF581D002D003D004D005D0068D118E12905B
:20039600000AC004C003C002120A0FA882A983D002D003D004D007EA28F8EC39F9E824D01F
:2003B600FDE934FFFEC007C006C005C00312020FAC82D003D005D006D007ECB5031B9027DF
:2003D60010E4F5F0C007C006C005C0031203FDD003D005D006D00780CC0FBF05005003023E
:2003F60002FF8D828E8322AC82AD83AEF0FF780079007A007B00C3E89CE99DEA9EEB9F5094
:200416000F08B8000909B900050ABA00E90B80E62220C7FDD2C530C3FDC2C5C2C322858247
:20043600C210C30280FB228582C2D2C410C30280FB2230C3FD85C282C2C32230C3FDAFC2E0
:20045600C2C3D2C410C30280FB8F8222AF82C2AFC007120427D00774FE5FF5821204348554
:200476002C821204347F00AD307E001DBDFF011E8F037C00C3EB9DEC64808EF063F080958D
:20049600F0501FEF252DFCE4352EFDAE2F8C828D838EF0121279F582C007120434D0070FE2
:2004B60080C5AE307F001EBEFF011FEE252DFEEF352EFFAD2F8E828F838DF0121279F5826B
:2004D60012043DD2AF22AF82C2AFC007120427D00774FE5FF582C0071204348531821204EC
:2004F6003D120427D00774014FF5821204347F00AD357E001DBDFF011E8F037C00C3EB9DE0
:20051600EC64808EF063F08095F0502ED2C2EF2532FCE43533FDAE34C007C006C005C0048A
:20053600120448AB82D004D005D006D0078C828D838EF0EB1209F40F80B6C2C2AE357F0003
:200556001EBEFF011FEE2532FEEF3533FFAD34C007C006C005120451AC82D005D006D007A7
:200576008E828F838DF0EC1209F4D2AF22752223752300752310752400752D22752E0075B9
:200596002F40752C2075300175823012046222752204752D22752E00752F40752C2375305F
:2005B6000175823A12046275226B752300752400752D22752E00752F40752C207530017521
:2005D600823A1204622212010D7582201201201206B11206C11206C51206F9747EC0E074AF
:2005F60013C0E07480C0E0120C64158115811581E53E20E0FB30B71812079585823C858344
:200616003D74FFC3953CF5EA74FF953DF5FA801C12076F85824085834185363C85373D7455
:20063600FFC3953CF5EA74FF953DF5FA751128751200854282854383120B27E5828583F092
:2006560045F0704BC040C04174A4C0E07413C0E07480C0E0120C64E58124FBF581C044C0DF
:200676004574BAC0E07413C0E07480C0E0120C64E58124FBF581C03CC03D74D1C0E07413B4
:20069600C0E07480C0E0120C64E58124FBF5810542E4B5420205430206062275A50F75A4B5
:2006B600C043803F53A77F43B0802275E12722D2AF43E60875D98175DAC275E90075F970E7
:2006D60043D84022C0E0C0D010DF02800E75E90075F970053EE4B53E02053F53D840D0D031
:2006F600D0E03275CF93D2C62212012AAF82BF721F740A253CFDE4353DFEC3E5389DE539E8
:200716009E402F740A253CF53CE4353DF53D8022BF6C1FE53C24F6FEE53D34FFFFC3EE955F
:200736003AEF953B400CE53C24F6F53CE53D34FFF53D74FFC3953CF5EA74FF953DF5FAC091
:200756003CC03D74EAC0E07413C0E07480C0E0120C64E58124FBF5812275324675330075E8
:2007760034407531027535027582C01204DCAF467E00AC477D00EC4EF582ED4FF583221276
:20079600076F858240858341AE44AF45AC40AD41EEC39CF548EF9DF549C374089548748712
:2007B6008549F063F08095F0500F7410C39548F548740E9549F5498019C3E54894F8E5496C
:2007D60064809478500C74102548F548740E3549F549C3E544948CE545940A401E74109500
:2007F60044740E954540147484954074039541400AE49548F548E49549F549854882854970
:2008160083120BCDAA82AB83ACF0FDC002C003C004C005907AE175F054743F1208F0AA82C7
:20083600AB83ACF0FDE58124FCF581853682853783C005C004C003C002120BDAA882A98308
:20085600AEF0FFD002D003D004D005C000C001C006C0078A828B838CF0ED120B74AC82AD9A
:2008760083AEF0FFE58124FCF5818C828D838EF0EF120BE6AE82AF83C3E53A9EE53B9F50C7
:2008960006AE3AAF3B800DC3EE9538EF95395004AE38AF39751128751200854282854383B7
:2008B600C007C006120B27E5828583F0D006D00745F07021C007C006C048C04974FAC0E0D3
:1A08D6007413C0E07480C0E0120C64E58124FBF581D006D0078E828F8322DF
:201355000A54797065206469676974733B20656E6420772F230020202020202563256325D8
:20137500632563256300256300456D62656464656420436F6E74726F6C20537465657269C6
:201395006E67202B20436F6D706173730D0A000D0A41637475616C2068656164696E67208A
:2013B5003D202575000D0A446573697265642068656164696E67203D202575000D0A536574
:2013D50072766F2050756C7365207769647468203D202575000D0A534552564F5F50573A3B
:1113F5002025750A000D0A6572726F723A20256400FF
:2008F000120993BC0003020C12EF60FA30D502B2D1E583B4FF03020C28E582B4FF03020C09
:2009100028258340072482400B020C122483145003020C28F582EA8DF0A4A8F0EA8EF0A435
:2009300028F8E435F0F9EB8DF0A428E935F0F9E433CA8FF0A429F9EA35F0FAEBF88EF0A416
:2009500029F9EA35F0FAE433FBEC8DF0A429F9EA35F0FAE43BFBE88FF0A42AFAEB35F0FBBE
:20097000E433CCFD8EF0A42AFAEB35F0FBE43CFCED8FF0A42BFBEC35F0FC20E7031209C1F1
:03099000020BF166
:20099300AA82AB83A2F73392D1F5826002D2F7ACF0E58124F9F8E6FD08E6FE0886F008E6C7
:0E09B300A2F73392D5F5836002D2F7AFF0229F
:06008000E478FFF6D8FD54
:2009C1007804EC7011E58224F8500AF582E4C9CACBFCD8EF22EC7820058220E713D5820135
:1309E10022C3E933F9EA33FAEB33FBEC33FCD8EA15822243
:20005E007900E94400601B7A00901411785175AF00E493F2A308B8000205AFD9F4DAF275B5
:02007E00AFFFD2
:1B09F40020F71130F6138883A88220F509F6A8837583002280FEF280F5F02202
:1D0A0F00E5828511F0A4C582C0F08512F0A4D0F025F0C5838511F0A42583F583228E
:200A2C00C00F85810FC082058105810581E50F24FBF8A90F0909E6F70809E6F70809E6F764
:200A4C00A80F080886820886830886F0121279FAA3121279FBA3121279FF74012AFCE43B61
:200A6C00FD8F06A80F080886820886830886F0EC1209F4A3ED1209F4A3EE1209F48A828BA9
:200A8C00838FF0A80F08E61209F4850F81D00F2285820C85830D85F00E75560C75570075BB
:200AAC00584085085985095A850A5B850B5C900A2C120D3BAE82AF83AB0CAC0DAD0E8B8234
:200ACC008C838DF0E41209F48E828F8322C00F85810FE50F24F8FF8F5CE50F24FBFF8F5672
:200AEC00755700755840E50F24F8F8865908865A08865B900A2C120D3BAE82AF83E50F24BF
:1B0B0C00FBF886030886040886058B828C838DF0E41209F48E828F83D00F227E
:200B2700E511451260467A01E51125E0F511E512334012F512E5829511E583951240030A53
:200B470080E6C3E51213F512E51113F511C3E5829511F5F0E58395124005F58385F082C30A
:0D0B6700E51213F512E51113F511DAE12284
:200086007800E84400600A790175AF00E4F309D8FC7850E84400600C7901900001E4F0A318
:0400A600D8FCD9FAAF
:200B74001209937900E583B58202800D5003121247E583C395821212D5E5D0C465D020E164
:200B940017EA2DFAEB3EFBEC3FFC500974011212D5EC4480FC020BF1C3EA9DFAEB9EFBECA9
:190BB4009FFC500FC3E499F9E49AFAE49BFBE49CFCB2D11209C1020BF12A
:0D0BCD00AC83AB827A007900748E02129E18
:0C0BDA00E4AC83AB82FAF9748E0212CBFB
:0B0BE6007F8E12131EF58385F0822223
:200BF100B98003EA13B34010EA2401FAE43BFBE43CFC50047C800582BC000EBB000BBA0048
:200C110008E4F5F0F583F58222A2D1E582138CF092F78B838A8222E4F583F58275F080F407
:0F0C3100A2D11322E4F583F58275F0C0747F22FF
:200C4000C00F85810F120120D00F2285825985835A85F05BE4F556F557F55885105C900C95
:200C600040020D3BC00F85810FE50F24FBFF8F5CE4F556F557F558E50F24FBF886590886C9
:0D0C80005A08865B900C40120D3BD00F22ED
:200C8D00AF82C04CC04DC04E120C9A8007C04AC04B8F82221581158115810554E4B554025E
:200CAD00055522AF8274302FFF24C6500A74072FFF3000034307208F82020C8DE582FFC448
:200CCD00540FF582C007120CB0D007740F5FF582020CB0858211854F128550138551148555
:200CED005215AA53751620EA2AFAE515235401FF8A064EFAE5122512F512E51333F513E534
:200D0D001433F514E51533F515C3EA95114008EAC39511FA431201E51614FF8F1670C88591
:200D2D00124F8513508514518515528A532285824A85834B85564C85574D85584EE4F5543C
:200D4D00F555AD59AE5AAF5B8D828E838FF0121279FC74012DF559E43EF55A8F5BECFF7046
:200D6D0003021240BF25028003021238C201C202C203C204C205C206C207C208755D0075DF
:200D8D005E00755FFFAA59AB5AAE5B8A828B838EF0121279FFA3AA82AB838A598B5A8E5B22
:200DAD00BF25078F82120C8D8098BF3000402DEF24C6402874FFB55F12E55E75F00AA42FAC
:200DCD00FC24D0F55E70C4D20280C0E55F75F00AA4FC8F05ED2C24D0F55F80AFBF2E0A7499
:200DED00FFB55FA7755F0080A2BF6100400CEF248540075307DFD2008002C200BF2002803B
:200E0D006DBF2B028063BF2D028059BF42028063BF43028068BF4403020FDEBF4603020FE2
:200E2D00F4BF4803020D98BF4903020FDEBF4A03020D98BF4C028040BF4F03020FE5BF5070
:200E4D0003020F73BF5302805ABF5403020D98BF5503020FEABF5803020FEFBF5A03020DFC
:200E6D0098020FF8D201020D98D203020D98D204020D98D206020D98D207020D9830060A12
:200E8D00E55C14F9895C87078011E55C24FEFE8E5C8E018705098706198D078F82120C8D8E
:200EAD00021001E55C24FDFE8E5C8E01870409870509870619198C4F8D508E518C828D839C
:200ECD008EF0121261AD82AE8374FFB55F028D5F200126C3ED955E5020E55EC39DF55EAE2F
:200EED005E8E041EEC6010758220C006C005120C8DD005D00680EA8E5EAE5F854F828550F5
:200F0D00838551F0121279FCFF602F8E041EC374808CF063F08095F050208F82C006C0050D
:200F2D00120C8DD005D006AA4FAB50AC510ABA00010B8A4F8B508C5180C120010302100184
:200F4D00C3ED955E4003021001E55EC39DF55EAE5E8E041EEC7003020FFF758220C006127B
:200F6D000C8DD00680EBE55C24FDFC8C5C8C01870209870309870419198A4F8B508C51AC98
:200F8D0051BC800040047F438014BC600040047F50800BBC400040047F4980027F588F82F1
:200FAD00C007120C8D75823A120C8D758230120C8D758278120C8DD007BF4902800BBF506F
:200FCD00028006855082120CC9854F82120CC98023D205755D0A801C755D088017755D0AC2
:200FED008012755D10800DD20880098F82120C8D80028E5E30085CE55C24FCFE8E5C8E01EA
:20100D0087020987030987040987061919198A4F8B508C518E52754F067550147551808553
:20102D004F6185506285516374012561FAE43562FCAE638A4F8C508E51856182856283851B
:20104D0063F0121279FEFF7003020D4F8F82120C8D80CCE55D7003020D4F75601C30062D56
:20106D00E55C14F9895C87048C027B007C007E008A4F8B508C518E52200566AA4F7B007CB6
:20108D00007E008A4F8B508C518E528054300721E55C24FCFE8E5C8E0187020987030987A4
:2010AD00040987061919198A4F8B508C518E528030E55C24FEFE8E5C8E0187040987061909
:2010CD00EE3395E0FBFA8C4F8E508B518A52200510AA4FAB507C007E008A4F8B508C518EC5
:2010ED0052300522E55230E71BC3E4954FFAE49550FBE49551FCE49552FE8A4F8B508C5168
:20110D008E528002C205D209A9607E00755300855D82C006C001120CE0D001D00620090BAB
:20112D00E553C4FCE7FB4CF7198002A7530EB209E54F45504551455270D289608E05E55E30
:20114D007003755E01200224200121ED04FEAC5EC3EE9C5015758220C006C005C004120C84
:20116D008DD004D005D0061C80E68C5E30050E75822DC005120C8DD005155E8023ED6020BB
:20118D0030030E75822BC005120C8DD005155E800F30040C758220C005120C8DD005155E89
:2011AD00200126AE5E8E041EC3ED9C502F3002067B307C0080047B207C008B82C006C005C2
:2011CD00120C8DD005D00680DCC3ED955E5008E55EC39DF55E8007755E0080028E5EA9608E
:2011ED008D068E051EED6026B20920090A09E7C4540FFD8D5380078705740F5DF553855336
:20120D0082C006C001120CB0D001D00680D4200103020D4FAE5E8E051EED7003020D4F757D
:1A122D008220C006120C8DD00680EB8F82120C8D020D4F855482855583225F
:0B1406003C4E4F20464C4F41543E002E
:1A124700E582C583F582A2D133A2D592D11392D5ECCFFCEBCEFBEACDFA222F
:18126100AA82AB831212796003A380F8C3E5829AF582E5839BF5832228
:0D005100758163121318E582600302004EF2
:1C12790020F71430F6148883A88220F507E6A88375830022E280F7E49322E02284
:20129500FCABF0AA83A982749EF582C2D1EC30E716D2D1E9F42401F9EAF43400FAEBF43458
:0D12B50000FBECF43400FC1209C1020BF147
:1312C200FCABF0AA83A982749EC2D1F5821209C1020BF134
:2012D5006040F82582500274FFF582E824F8501ECCCBCAF9E4CC24F85014CBCAF9E4CB2421
:2012F500F8500BCAF9E4CA24F8500379002224086010F8C3EC13FCEB13FBEA13FAE913F9D4
:03131500D8F122EA
:0413180075820022B8
:20131C007F9E12134330D103020C12C3EF9582500974FFF5F0F583F5822279001212D58982
:07133C00828A838BF0EC2292
:12134300AA82AB83A2F73392D1F5826002D2F7ACF022AF
:00000001FF
